{"contracts/MoCoKoV1.sol":{"MoCoKoV1":{"abi":[{"inputs":[],"stateMutability":"nonpayable","type":"constructor"},{"inputs":[],"name":"ECDSAInvalidSignature","type":"error"},{"inputs":[{"internalType":"uint256","name":"length","type":"uint256"}],"name":"ECDSAInvalidSignatureLength","type":"error"},{"inputs":[{"internalType":"bytes32","name":"s","type":"bytes32"}],"name":"ECDSAInvalidSignatureS","type":"error"},{"inputs":[{"internalType":"address","name":"spender","type":"address"},{"internalType":"uint256","name":"allowance","type":"uint256"},{"internalType":"uint256","name":"needed","type":"uint256"}],"name":"ERC20InsufficientAllowance","type":"error"},{"inputs":[{"internalType":"address","name":"sender","type":"address"},{"internalType":"uint256","name":"balance","type":"uint256"},{"internalType":"uint256","name":"needed","type":"uint256"}],"name":"ERC20InsufficientBalance","type":"error"},{"inputs":[{"internalType":"address","name":"approver","type":"address"}],"name":"ERC20InvalidApprover","type":"error"},{"inputs":[{"internalType":"address","name":"receiver","type":"address"}],"name":"ERC20InvalidReceiver","type":"error"},{"inputs":[{"internalType":"address","name":"sender","type":"address"}],"name":"ERC20InvalidSender","type":"error"},{"inputs":[{"internalType":"address","name":"spender","type":"address"}],"name":"ERC20InvalidSpender","type":"error"},{"inputs":[{"internalType":"uint256","name":"deadline","type":"uint256"}],"name":"ERC2612ExpiredSignature","type":"error"},{"inputs":[{"internalType":"address","name":"signer","type":"address"},{"internalType":"address","name":"owner","type":"address"}],"name":"ERC2612InvalidSigner","type":"error"},{"inputs":[{"internalType":"uint256","name":"maxLoan","type":"uint256"}],"name":"ERC3156ExceededMaxLoan","type":"error"},{"inputs":[{"internalType":"address","name":"receiver","type":"address"}],"name":"ERC3156InvalidReceiver","type":"error"},{"inputs":[{"internalType":"address","name":"token","type":"address"}],"name":"ERC3156UnsupportedToken","type":"error"},{"inputs":[],"name":"EnforcedPause","type":"error"},{"inputs":[],"name":"ExpectedPause","type":"error"},{"inputs":[{"internalType":"address","name":"account","type":"address"},{"internalType":"uint256","name":"currentNonce","type":"uint256"}],"name":"InvalidAccountNonce","type":"error"},{"inputs":[],"name":"InvalidInitialization","type":"error"},{"inputs":[],"name":"NotInitializing","type":"error"},{"inputs":[{"internalType":"address","name":"owner","type":"address"}],"name":"OwnableInvalidOwner","type":"error"},{"inputs":[{"internalType":"address","name":"account","type":"address"}],"name":"OwnableUnauthorizedAccount","type":"error"},{"anonymous":false,"inputs":[{"indexed":true,"internalType":"address","name":"owner","type":"address"},{"indexed":true,"internalType":"address","name":"spender","type":"address"},{"indexed":false,"internalType":"uint256","name":"value","type":"uint256"}],"name":"Approval","type":"event"},{"anonymous":false,"inputs":[],"name":"EIP712DomainChanged","type":"event"},{"anonymous":false,"inputs":[{"indexed":false,"internalType":"uint64","name":"version","type":"uint64"}],"name":"Initialized","type":"event"},{"anonymous":false,"inputs":[{"indexed":true,"internalType":"address","name":"previousOwner","type":"address"},{"indexed":true,"internalType":"address","name":"newOwner","type":"address"}],"name":"OwnershipTransferred","type":"event"},{"anonymous":false,"inputs":[{"indexed":false,"internalType":"address","name":"account","type":"address"}],"name":"Paused","type":"event"},{"anonymous":false,"inputs":[{"indexed":true,"internalType":"address","name":"from","type":"address"},{"indexed":true,"internalType":"address","name":"to","type":"address"},{"indexed":false,"internalType":"uint256","name":"value","type":"uint256"}],"name":"Transfer","type":"event"},{"anonymous":false,"inputs":[{"indexed":false,"internalType":"address","name":"account","type":"address"}],"name":"Unpaused","type":"event"},{"inputs":[],"name":"DOMAIN_SEPARATOR","outputs":[{"internalType":"bytes32","name":"","type":"bytes32"}],"stateMutability":"view","type":"function"},{"inputs":[{"internalType":"address","name":"owner","type":"address"},{"internalType":"address","name":"spender","type":"address"}],"name":"allowance","outputs":[{"internalType":"uint256","name":"","type":"uint256"}],"stateMutability":"view","type":"function"},{"inputs":[{"internalType":"address","name":"spender","type":"address"},{"internalType":"uint256","name":"value","type":"uint256"}],"name":"approve","outputs":[{"internalType":"bool","name":"","type":"bool"}],"stateMutability":"nonpayable","type":"function"},{"inputs":[{"internalType":"address","name":"account","type":"address"}],"name":"balanceOf","outputs":[{"internalType":"uint256","name":"","type":"uint256"}],"stateMutability":"view","type":"function"},{"inputs":[{"internalType":"uint256","name":"value","type":"uint256"}],"name":"burn","outputs":[],"stateMutability":"nonpayable","type":"function"},{"inputs":[{"internalType":"address","name":"account","type":"address"},{"internalType":"uint256","name":"value","type":"uint256"}],"name":"burnFrom","outputs":[],"stateMutability":"nonpayable","type":"function"},{"inputs":[],"name":"decimals","outputs":[{"internalType":"uint8","name":"","type":"uint8"}],"stateMutability":"view","type":"function"},{"inputs":[],"name":"eip712Domain","outputs":[{"internalType":"bytes1","name":"fields","type":"bytes1"},{"internalType":"string","name":"name","type":"string"},{"internalType":"string","name":"version","type":"string"},{"internalType":"uint256","name":"chainId","type":"uint256"},{"internalType":"address","name":"verifyingContract","type":"address"},{"internalType":"bytes32","name":"salt","type":"bytes32"},{"internalType":"uint256[]","name":"extensions","type":"uint256[]"}],"stateMutability":"view","type":"function"},{"inputs":[{"internalType":"address","name":"token","type":"address"},{"internalType":"uint256","name":"value","type":"uint256"}],"name":"flashFee","outputs":[{"internalType":"uint256","name":"","type":"uint256"}],"stateMutability":"view","type":"function"},{"inputs":[{"internalType":"contract IERC3156FlashBorrower","name":"receiver","type":"address"},{"internalType":"address","name":"token","type":"address"},{"internalType":"uint256","name":"value","type":"uint256"},{"internalType":"bytes","name":"data","type":"bytes"}],"name":"flashLoan","outputs":[{"internalType":"bool","name":"","type":"bool"}],"stateMutability":"nonpayable","type":"function"},{"inputs":[{"internalType":"address","name":"initialOwner","type":"address"}],"name":"initialize","outputs":[],"stateMutability":"nonpayable","type":"function"},{"inputs":[{"internalType":"address","name":"token","type":"address"}],"name":"maxFlashLoan","outputs":[{"internalType":"uint256","name":"","type":"uint256"}],"stateMutability":"view","type":"function"},{"inputs":[{"internalType":"address","name":"to","type":"address"},{"internalType":"uint256","name":"amount","type":"uint256"}],"name":"mint","outputs":[],"stateMutability":"nonpayable","type":"function"},{"inputs":[],"name":"name","outputs":[{"internalType":"string","name":"","type":"string"}],"stateMutability":"view","type":"function"},{"inputs":[{"internalType":"address","name":"owner","type":"address"}],"name":"nonces","outputs":[{"internalType":"uint256","name":"","type":"uint256"}],"stateMutability":"view","type":"function"},{"inputs":[],"name":"owner","outputs":[{"internalType":"address","name":"","type":"address"}],"stateMutability":"view","type":"function"},{"inputs":[],"name":"pause","outputs":[],"stateMutability":"nonpayable","type":"function"},{"inputs":[],"name":"paused","outputs":[{"internalType":"bool","name":"","type":"bool"}],"stateMutability":"view","type":"function"},{"inputs":[{"internalType":"address","name":"owner","type":"address"},{"internalType":"address","name":"spender","type":"address"},{"internalType":"uint256","name":"value","type":"uint256"},{"internalType":"uint256","name":"deadline","type":"uint256"},{"internalType":"uint8","name":"v","type":"uint8"},{"internalType":"bytes32","name":"r","type":"bytes32"},{"internalType":"bytes32","name":"s","type":"bytes32"}],"name":"permit","outputs":[],"stateMutability":"nonpayable","type":"function"},{"inputs":[],"name":"renounceOwnership","outputs":[],"stateMutability":"nonpayable","type":"function"},{"inputs":[],"name":"symbol","outputs":[{"internalType":"string","name":"","type":"string"}],"stateMutability":"view","type":"function"},{"inputs":[],"name":"totalSupply","outputs":[{"internalType":"uint256","name":"","type":"uint256"}],"stateMutability":"view","type":"function"},{"inputs":[{"internalType":"address","name":"to","type":"address"},{"internalType":"uint256","name":"value","type":"uint256"}],"name":"transfer","outputs":[{"internalType":"bool","name":"","type":"bool"}],"stateMutability":"nonpayable","type":"function"},{"inputs":[{"internalType":"address","name":"from","type":"address"},{"internalType":"address","name":"to","type":"address"},{"internalType":"uint256","name":"value","type":"uint256"}],"name":"transferFrom","outputs":[{"internalType":"bool","name":"","type":"bool"}],"stateMutability":"nonpayable","type":"function"},{"inputs":[{"internalType":"address","name":"newOwner","type":"address"}],"name":"transferOwnership","outputs":[],"stateMutability":"nonpayable","type":"function"},{"inputs":[],"name":"unpause","outputs":[],"stateMutability":"nonpayable","type":"function"}],"evm":{"bytecode":{"linkReferences":{},"object":"60806040523480156200001157600080fd5b50620000226200002860201b60201c565b6200019c565b60006200003a6200013260201b60201c565b90508060000160089054906101000a900460ff161562000086576040517ff92ee8a900000000000000000000000000000000000000000000000000000000815260040160405180910390fd5b67ffffffffffffffff80168160000160009054906101000a900467ffffffffffffffff1667ffffffffffffffff16146200012f5767ffffffffffffffff8160000160006101000a81548167ffffffffffffffff021916908367ffffffffffffffff1602179055507fc7f505b2f371ae2175ee4913f4499e1f2633a7b5936321eed1cdaeb6115181d267ffffffffffffffff6040516200012691906200017f565b60405180910390a15b50565b60007ff0c57e16840df040f15088dc2f81fe391c3923bec73e23a9662efc9c229c6a00905090565b600067ffffffffffffffff82169050919050565b62000179816200015a565b82525050565b60006020820190506200019660008301846200016e565b92915050565b61327080620001ac6000396000f3fe608060405234801561001057600080fd5b506004361061018e5760003560e01c8063715018a6116100de57806395d89b4111610097578063d505accf11610071578063d505accf14610467578063d9d98ce414610483578063dd62ed3e146104b3578063f2fde38b146104e35761018e565b806395d89b41146103fd578063a9059cbb1461041b578063c4d66de81461044b5761018e565b8063715018a61461035b57806379cc6790146103655780637ecebe00146103815780638456cb59146103b157806384b0196e146103bb5780638da5cb5b146103df5761018e565b80633f4ba83a1161014b5780635c975abb116101255780635c975abb146102ad5780635cffe9de146102cb578063613255ab146102fb57806370a082311461032b5761018e565b80633f4ba83a1461026b57806340c10f191461027557806342966c68146102915761018e565b806306fdde0314610193578063095ea7b3146101b157806318160ddd146101e157806323b872dd146101ff578063313ce5671461022f5780633644e5151461024d575b600080fd5b61019b6104ff565b6040516101a891906124c9565b60405180910390f35b6101cb60048036038101906101c69190612589565b6105a0565b6040516101d891906125e4565b60405180910390f35b6101e96105c3565b6040516101f6919061260e565b60405180910390f35b61021960048036038101906102149190612629565b6105db565b60405161022691906125e4565b60405180910390f35b61023761060a565b6040516102449190612698565b60405180910390f35b610255610613565b60405161026291906126cc565b60405180910390f35b610273610622565b005b61028f600480360381019061028a9190612589565b610634565b005b6102ab60048036038101906102a691906126e7565b61064a565b005b6102b561065e565b6040516102c291906125e4565b60405180910390f35b6102e560048036038101906102e091906127b7565b610683565b6040516102f291906125e4565b60405180910390f35b6103156004803603810190610310919061283f565b610880565b604051610322919061260e565b60405180910390f35b6103456004803603810190610340919061283f565b6108f7565b604051610352919061260e565b60405180910390f35b61036361094e565b005b61037f600480360381019061037a9190612589565b610962565b005b61039b6004803603810190610396919061283f565b610982565b6040516103a8919061260e565b60405180910390f35b6103b9610994565b005b6103c36109a6565b6040516103d69796959493929190612974565b60405180910390f35b6103e7610ab8565b6040516103f491906129f8565b60405180910390f35b610405610af0565b60405161041291906124c9565b60405180910390f35b61043560048036038101906104309190612589565b610b91565b60405161044291906125e4565b60405180910390f35b6104656004803603810190610460919061283f565b610bb4565b005b610481600480360381019061047c9190612a6b565b610e0d565b005b61049d60048036038101906104989190612589565b610f55565b6040516104aa919061260e565b60405180910390f35b6104cd60048036038101906104c89190612b0d565b610fd9565b6040516104da919061260e565b60405180910390f35b6104fd60048036038101906104f8919061283f565b61106e565b005b6060600061050b6110f4565b905080600301805461051c90612b7c565b80601f016020809104026020016040519081016040528092919081815260200182805461054890612b7c565b80156105955780601f1061056a57610100808354040283529160200191610595565b820191906000526020600020905b81548152906001019060200180831161057857829003601f168201915b505050505091505090565b6000806105ab61111c565b90506105b8818585611124565b600191505092915050565b6000806105ce6110f4565b9050806002015491505090565b6000806105e661111c565b90506105f3858285611136565b6105fe8585856111ca565b60019150509392505050565b60006012905090565b600061061d6112be565b905090565b61062a6112cd565b610632611354565b565b61063c6112cd565b61064682826113c6565b5050565b61065b61065561111c565b82611448565b50565b6000806106696114ca565b90508060000160009054906101000a900460ff1691505090565b60008061068f86610880565b9050808511156106d657806040517ffd9a76090000000000000000000000000000000000000000000000000000000081526004016106cd919061260e565b60405180910390fd5b60006106e28787610f55565b90506106ee88876113c6565b7f439148f0bbc682ca079e46d6e2c2f0c1e3b820f1a291b069d8882abf8cf18dd98873ffffffffffffffffffffffffffffffffffffffff166323e30c8b61073361111c565b8a8a868b8b6040518763ffffffff1660e01b815260040161075996959493929190612bfa565b6020604051808303816000875af1158015610778573d6000803e3d6000fd5b505050506040513d601f19601f8201168201806040525081019061079c9190612c6b565b146107de57876040517f678c5b000000000000000000000000000000000000000000000000000000000081526004016107d591906129f8565b60405180910390fd5b60006107e86114f2565b90506108008930848a6107fb9190612cc7565b611136565b600082148061083b5750600073ffffffffffffffffffffffffffffffffffffffff168173ffffffffffffffffffffffffffffffffffffffff16145b1561085a576108558983896108509190612cc7565b611448565b610870565b6108648988611448565b61086f8982846111ca565b5b6001935050505095945050505050565b60003073ffffffffffffffffffffffffffffffffffffffff168273ffffffffffffffffffffffffffffffffffffffff16146108bc5760006108f0565b6108c46105c3565b7fffffffffffffffffffffffffffffffffffffffffffffffffffffffffffffffff6108ef9190612cfb565b5b9050919050565b6000806109026110f4565b90508060000160008473ffffffffffffffffffffffffffffffffffffffff1673ffffffffffffffffffffffffffffffffffffffff16815260200190815260200160002054915050919050565b6109566112cd565b61096060006114f7565b565b6109748261096e61111c565b83611136565b61097e8282611448565b5050565b600061098d826115ce565b9050919050565b61099c6112cd565b6109a4611625565b565b60006060806000806000606060006109bc611697565b90506000801b81600001541480156109da57506000801b8160010154145b610a19576040517f08c379a0000000000000000000000000000000000000000000000000000000008152600401610a1090612d7b565b60405180910390fd5b610a216116bf565b610a29611760565b46306000801b600067ffffffffffffffff811115610a4a57610a49612d9b565b5b604051908082528060200260200182016040528015610a785781602001602082028036833780820191505090505b507f0f0000000000000000000000000000000000000000000000000000000000000095949392919097509750975097509750975097505090919293949596565b600080610ac3611801565b90508060000160009054906101000a900473ffffffffffffffffffffffffffffffffffffffff1691505090565b60606000610afc6110f4565b9050806004018054610b0d90612b7c565b80601f0160208091040260200160405190810160405280929190818152602001828054610b3990612b7c565b8015610b865780601f10610b5b57610100808354040283529160200191610b86565b820191906000526020600020905b815481529060010190602001808311610b6957829003601f168201915b505050505091505090565b600080610b9c61111c565b9050610ba98185856111ca565b600191505092915050565b6000610bbe611829565b905060008160000160089054906101000a900460ff1615905060008260000160009054906101000a900467ffffffffffffffff1690506000808267ffffffffffffffff16148015610c0c5750825b9050600060018367ffffffffffffffff16148015610c41575060003073ffffffffffffffffffffffffffffffffffffffff163b145b905081158015610c4f575080155b15610c86576040517ff92ee8a900000000000000000000000000000000000000000000000000000000815260040160405180910390fd5b60018560000160006101000a81548167ffffffffffffffff021916908367ffffffffffffffff1602179055508315610cd65760018560000160086101000a81548160ff0219169083151502179055505b610d4a6040518060400160405280600681526020017f4d6f436f4b6f00000000000000000000000000000000000000000000000000008152506040518060400160405280600381526020017f4d434b0000000000000000000000000000000000000000000000000000000000815250611851565b610d52611867565b610d5a611871565b610d6386611883565b610da16040518060400160405280600681526020017f4d6f436f4b6f0000000000000000000000000000000000000000000000000000815250611897565b610da96118e1565b8315610e055760008560000160086101000a81548160ff0219169083151502179055507fc7f505b2f371ae2175ee4913f4499e1f2633a7b5936321eed1cdaeb6115181d26001604051610dfc9190612e23565b60405180910390a15b505050505050565b83421115610e5257836040517f62791302000000000000000000000000000000000000000000000000000000008152600401610e49919061260e565b60405180910390fd5b60007f6e71edae12b1b97f4d1f60370fef10105fa2faae0126114a169c64845d6126c9888888610e818c6118eb565b89604051602001610e9796959493929190612e3e565b6040516020818303038152906040528051906020012090506000610eba82611950565b90506000610eca8287878761196a565b90508973ffffffffffffffffffffffffffffffffffffffff168173ffffffffffffffffffffffffffffffffffffffff1614610f3e57808a6040517f4b800e46000000000000000000000000000000000000000000000000000000008152600401610f35929190612e9f565b60405180910390fd5b610f498a8a8a611124565b50505050505050505050565b60003073ffffffffffffffffffffffffffffffffffffffff168373ffffffffffffffffffffffffffffffffffffffff1614610fc757826040517fb5a7db92000000000000000000000000000000000000000000000000000000008152600401610fbe91906129f8565b60405180910390fd5b610fd1838361199a565b905092915050565b600080610fe46110f4565b90508060010160008573ffffffffffffffffffffffffffffffffffffffff1673ffffffffffffffffffffffffffffffffffffffff16815260200190815260200160002060008473ffffffffffffffffffffffffffffffffffffffff1673ffffffffffffffffffffffffffffffffffffffff1681526020019081526020016000205491505092915050565b6110766112cd565b600073ffffffffffffffffffffffffffffffffffffffff168173ffffffffffffffffffffffffffffffffffffffff16036110e85760006040517f1e4fbdf70000000000000000000000000000000000000000000000000000000081526004016110df91906129f8565b60405180910390fd5b6110f1816114f7565b50565b60007f52c63247e1f47db19d5ce0460030c497f067ca4cebf71ba98eeadabe20bace00905090565b600033905090565b61113183838360016119a2565b505050565b60006111428484610fd9565b90507fffffffffffffffffffffffffffffffffffffffffffffffffffffffffffffffff81146111c457818110156111b4578281836040517ffb8f41b20000000000000000000000000000000000000000000000000000000081526004016111ab93929190612ec8565b60405180910390fd5b6111c3848484840360006119a2565b5b50505050565b600073ffffffffffffffffffffffffffffffffffffffff168373ffffffffffffffffffffffffffffffffffffffff160361123c5760006040517f96c6fd1e00000000000000000000000000000000000000000000000000000000815260040161123391906129f8565b60405180910390fd5b600073ffffffffffffffffffffffffffffffffffffffff168273ffffffffffffffffffffffffffffffffffffffff16036112ae5760006040517fec442f050000000000000000000000000000000000000000000000000000000081526004016112a591906129f8565b60405180910390fd5b6112b9838383611b88565b505050565b60006112c8611b98565b905090565b6112d561111c565b73ffffffffffffffffffffffffffffffffffffffff166112f3610ab8565b73ffffffffffffffffffffffffffffffffffffffff16146113525761131661111c565b6040517f118cdaa700000000000000000000000000000000000000000000000000000000815260040161134991906129f8565b60405180910390fd5b565b61135c611bfc565b60006113666114ca565b905060008160000160006101000a81548160ff0219169083151502179055507f5db9ee0a495bf2e6ff9c91a7834c1ba4fdd244a5e8aa4e537bd38aeae4b073aa6113ae61111c565b6040516113bb91906129f8565b60405180910390a150565b600073ffffffffffffffffffffffffffffffffffffffff168273ffffffffffffffffffffffffffffffffffffffff16036114385760006040517fec442f0500000000000000000000000000000000000000000000000000000000815260040161142f91906129f8565b60405180910390fd5b61144460008383611b88565b5050565b600073ffffffffffffffffffffffffffffffffffffffff168273ffffffffffffffffffffffffffffffffffffffff16036114ba5760006040517f96c6fd1e0000000000000000000000000000000000000000000000000000000081526004016114b191906129f8565b60405180910390fd5b6114c682600083611b88565b5050565b60007fcd5ed15c6e187e77e9aee88184c21f4f2182ab5827cb3b7e07fbedcd63f03300905090565b600090565b6000611501611801565b905060008160000160009054906101000a900473ffffffffffffffffffffffffffffffffffffffff169050828260000160006101000a81548173ffffffffffffffffffffffffffffffffffffffff021916908373ffffffffffffffffffffffffffffffffffffffff1602179055508273ffffffffffffffffffffffffffffffffffffffff168173ffffffffffffffffffffffffffffffffffffffff167f8be0079c531659141344cd1fd0a4f28419497f9722a3daafe3b4186f6b6457e060405160405180910390a3505050565b6000806115d9611c3c565b90508060000160008473ffffffffffffffffffffffffffffffffffffffff1673ffffffffffffffffffffffffffffffffffffffff16815260200190815260200160002054915050919050565b61162d611c64565b60006116376114ca565b905060018160000160006101000a81548160ff0219169083151502179055507f62e78cea01bee320cd4e420270b5ea74000d11b0c9f74754ebdbfc544b05a25861167f61111c565b60405161168c91906129f8565b60405180910390a150565b60007fa16a46d94261c7517cc8ff89f61c0ce93598e3c849801011dee649a6a557d100905090565b606060006116cb611697565b90508060020180546116dc90612b7c565b80601f016020809104026020016040519081016040528092919081815260200182805461170890612b7c565b80156117555780601f1061172a57610100808354040283529160200191611755565b820191906000526020600020905b81548152906001019060200180831161173857829003601f168201915b505050505091505090565b6060600061176c611697565b905080600301805461177d90612b7c565b80601f01602080910402602001604051908101604052809291908181526020018280546117a990612b7c565b80156117f65780601f106117cb576101008083540402835291602001916117f6565b820191906000526020600020905b8154815290600101906020018083116117d957829003601f168201915b505050505091505090565b60007f9016d09d72d40fdae2fd8ceac6b6234c7706214fd39c1cd1e609a0528c199300905090565b60007ff0c57e16840df040f15088dc2f81fe391c3923bec73e23a9662efc9c229c6a00905090565b611859611ca5565b6118638282611ce5565b5050565b61186f611ca5565b565b611879611ca5565b611881611d22565b565b61188b611ca5565b61189481611d56565b50565b61189f611ca5565b6118de816040518060400160405280600181526020017f3100000000000000000000000000000000000000000000000000000000000000815250611ddc565b50565b6118e9611ca5565b565b6000806118f6611c3c565b90508060000160008473ffffffffffffffffffffffffffffffffffffffff1673ffffffffffffffffffffffffffffffffffffffff168152602001908152602001600020600081548092919060010191905055915050919050565b600061196361195d6112be565b83611e31565b9050919050565b60008060008061197c88888888611e72565b92509250925061198c8282611f66565b829350505050949350505050565b600092915050565b60006119ac6110f4565b9050600073ffffffffffffffffffffffffffffffffffffffff168573ffffffffffffffffffffffffffffffffffffffff1603611a205760006040517fe602df05000000000000000000000000000000000000000000000000000000008152600401611a1791906129f8565b60405180910390fd5b600073ffffffffffffffffffffffffffffffffffffffff168473ffffffffffffffffffffffffffffffffffffffff1603611a925760006040517f94280d62000000000000000000000000000000000000000000000000000000008152600401611a8991906129f8565b60405180910390fd5b828160010160008773ffffffffffffffffffffffffffffffffffffffff1673ffffffffffffffffffffffffffffffffffffffff16815260200190815260200160002060008673ffffffffffffffffffffffffffffffffffffffff1673ffffffffffffffffffffffffffffffffffffffff168152602001908152602001600020819055508115611b81578373ffffffffffffffffffffffffffffffffffffffff168573ffffffffffffffffffffffffffffffffffffffff167f8c5be1e5ebec7d5bd14f71427d1e84f3dd0314c0f7b2291e5b200ac8c7c3b92585604051611b78919061260e565b60405180910390a35b5050505050565b611b938383836120ca565b505050565b60007f8b73c3c69bb8fe3d512ecc4cf759cc79239f7b179b0ffacaa9a75d522b39400f611bc36120e2565b611bcb61215e565b4630604051602001611be1959493929190612eff565b60405160208183030381529060405280519060200120905090565b611c0461065e565b611c3a576040517f8dfc202b00000000000000000000000000000000000000000000000000000000815260040160405180910390fd5b565b60007f5ab42ced628888259c08ac98db1eb0cf702fc1501344311d8b100cd1bfe4bb00905090565b611c6c61065e565b15611ca3576040517fd93c066500000000000000000000000000000000000000000000000000000000815260040160405180910390fd5b565b611cad6121da565b611ce3576040517fd7e6bcf800000000000000000000000000000000000000000000000000000000815260040160405180910390fd5b565b611ced611ca5565b6000611cf76110f4565b905082816003019081611d0a91906130f4565b5081816004019081611d1c91906130f4565b50505050565b611d2a611ca5565b6000611d346114ca565b905060008160000160006101000a81548160ff02191690831515021790555050565b611d5e611ca5565b600073ffffffffffffffffffffffffffffffffffffffff168173ffffffffffffffffffffffffffffffffffffffff1603611dd05760006040517f1e4fbdf7000000000000000000000000000000000000000000000000000000008152600401611dc791906129f8565b60405180910390fd5b611dd9816114f7565b50565b611de4611ca5565b6000611dee611697565b905082816002019081611e0191906130f4565b5081816003019081611e1391906130f4565b506000801b81600001819055506000801b8160010181905550505050565b60006040517f190100000000000000000000000000000000000000000000000000000000000081528360028201528260228201526042812091505092915050565b60008060007f7fffffffffffffffffffffffffffffff5d576e7357a4501ddfe92f46681b20a08460001c1115611eb2576000600385925092509250611f5c565b600060018888888860405160008152602001604052604051611ed794939291906131c6565b6020604051602081039080840390855afa158015611ef9573d6000803e3d6000fd5b505050602060405103519050600073ffffffffffffffffffffffffffffffffffffffff168173ffffffffffffffffffffffffffffffffffffffff1603611f4d57600060016000801b93509350935050611f5c565b8060008060001b935093509350505b9450945094915050565b60006003811115611f7a57611f7961320b565b5b826003811115611f8d57611f8c61320b565b5b03156120c65760016003811115611fa757611fa661320b565b5b826003811115611fba57611fb961320b565b5b03611ff1576040517ff645eedf00000000000000000000000000000000000000000000000000000000815260040160405180910390fd5b600260038111156120055761200461320b565b5b8260038111156120185761201761320b565b5b0361205d578060001c6040517ffce698f7000000000000000000000000000000000000000000000000000000008152600401612054919061260e565b60405180910390fd5b6003808111156120705761206f61320b565b5b8260038111156120835761208261320b565b5b036120c557806040517fd78bce0c0000000000000000000000000000000000000000000000000000000081526004016120bc91906126cc565b60405180910390fd5b5b5050565b6120d2611c64565b6120dd8383836121fa565b505050565b6000806120ed611697565b905060006120f96116bf565b90506000815111156121165780805190602001209250505061215b565b6000826000015490506000801b81146121345780935050505061215b565b7fc5d2460186f7233c927e7db2dcc703c0e500b653ca82273b7bfad8045d85a47093505050505b90565b600080612169611697565b90506000612175611760565b9050600081511115612192578080519060200120925050506121d7565b6000826001015490506000801b81146121b0578093505050506121d7565b7fc5d2460186f7233c927e7db2dcc703c0e500b653ca82273b7bfad8045d85a47093505050505b90565b60006121e4611829565b60000160089054906101000a900460ff16905090565b60006122046110f4565b9050600073ffffffffffffffffffffffffffffffffffffffff168473ffffffffffffffffffffffffffffffffffffffff160361225a578181600201600082825461224e9190612cc7565b92505081905550612333565b60008160000160008673ffffffffffffffffffffffffffffffffffffffff1673ffffffffffffffffffffffffffffffffffffffff168152602001908152602001600020549050828110156122e9578481846040517fe450d38c0000000000000000000000000000000000000000000000000000000081526004016122e093929190612ec8565b60405180910390fd5b8281038260000160008773ffffffffffffffffffffffffffffffffffffffff1673ffffffffffffffffffffffffffffffffffffffff16815260200190815260200160002081905550505b600073ffffffffffffffffffffffffffffffffffffffff168373ffffffffffffffffffffffffffffffffffffffff160361237e578181600201600082825403925050819055506123ce565b818160000160008573ffffffffffffffffffffffffffffffffffffffff1673ffffffffffffffffffffffffffffffffffffffff168152602001908152602001600020600082825401925050819055505b8273ffffffffffffffffffffffffffffffffffffffff168473ffffffffffffffffffffffffffffffffffffffff167fddf252ad1be2c89b69c2b068fc378daa952ba7f163c4a11628f55a4df523b3ef8460405161242b919061260e565b60405180910390a350505050565b600081519050919050565b600082825260208201905092915050565b60005b83811015612473578082015181840152602081019050612458565b60008484015250505050565b6000601f19601f8301169050919050565b600061249b82612439565b6124a58185612444565b93506124b5818560208601612455565b6124be8161247f565b840191505092915050565b600060208201905081810360008301526124e38184612490565b905092915050565b600080fd5b600080fd5b600073ffffffffffffffffffffffffffffffffffffffff82169050919050565b6000612520826124f5565b9050919050565b61253081612515565b811461253b57600080fd5b50565b60008135905061254d81612527565b92915050565b6000819050919050565b61256681612553565b811461257157600080fd5b50565b6000813590506125838161255d565b92915050565b600080604083850312156125a05761259f6124eb565b5b60006125ae8582860161253e565b92505060206125bf85828601612574565b9150509250929050565b60008115159050919050565b6125de816125c9565b82525050565b60006020820190506125f960008301846125d5565b92915050565b61260881612553565b82525050565b600060208201905061262360008301846125ff565b92915050565b600080600060608486031215612642576126416124eb565b5b60006126508682870161253e565b93505060206126618682870161253e565b925050604061267286828701612574565b9150509250925092565b600060ff82169050919050565b6126928161267c565b82525050565b60006020820190506126ad6000830184612689565b92915050565b6000819050919050565b6126c6816126b3565b82525050565b60006020820190506126e160008301846126bd565b92915050565b6000602082840312156126fd576126fc6124eb565b5b600061270b84828501612574565b91505092915050565b600061271f82612515565b9050919050565b61272f81612714565b811461273a57600080fd5b50565b60008135905061274c81612726565b92915050565b600080fd5b600080fd5b600080fd5b60008083601f84011261277757612776612752565b5b8235905067ffffffffffffffff81111561279457612793612757565b5b6020830191508360018202830111156127b0576127af61275c565b5b9250929050565b6000806000806000608086880312156127d3576127d26124eb565b5b60006127e18882890161273d565b95505060206127f28882890161253e565b945050604061280388828901612574565b935050606086013567ffffffffffffffff811115612824576128236124f0565b5b61283088828901612761565b92509250509295509295909350565b600060208284031215612855576128546124eb565b5b60006128638482850161253e565b91505092915050565b60007fff0000000000000000000000000000000000000000000000000000000000000082169050919050565b6128a18161286c565b82525050565b6128b081612515565b82525050565b600081519050919050565b600082825260208201905092915050565b6000819050602082019050919050565b6128eb81612553565b82525050565b60006128fd83836128e2565b60208301905092915050565b6000602082019050919050565b6000612921826128b6565b61292b81856128c1565b9350612936836128d2565b8060005b8381101561296757815161294e88826128f1565b975061295983612909565b92505060018101905061293a565b5085935050505092915050565b600060e082019050612989600083018a612898565b818103602083015261299b8189612490565b905081810360408301526129af8188612490565b90506129be60608301876125ff565b6129cb60808301866128a7565b6129d860a08301856126bd565b81810360c08301526129ea8184612916565b905098975050505050505050565b6000602082019050612a0d60008301846128a7565b92915050565b612a1c8161267c565b8114612a2757600080fd5b50565b600081359050612a3981612a13565b92915050565b612a48816126b3565b8114612a5357600080fd5b50565b600081359050612a6581612a3f565b92915050565b600080600080600080600060e0888a031215612a8a57612a896124eb565b5b6000612a988a828b0161253e565b9750506020612aa98a828b0161253e565b9650506040612aba8a828b01612574565b9550506060612acb8a828b01612574565b9450506080612adc8a828b01612a2a565b93505060a0612aed8a828b01612a56565b92505060c0612afe8a828b01612a56565b91505092959891949750929550565b60008060408385031215612b2457612b236124eb565b5b6000612b328582860161253e565b9250506020612b438582860161253e565b9150509250929050565b7f4e487b7100000000000000000000000000000000000000000000000000000000600052602260045260246000fd5b60006002820490506001821680612b9457607f821691505b602082108103612ba757612ba6612b4d565b5b50919050565b600082825260208201905092915050565b82818337600083830152505050565b6000612bd98385612bad565b9350612be6838584612bbe565b612bef8361247f565b840190509392505050565b600060a082019050612c0f60008301896128a7565b612c1c60208301886128a7565b612c2960408301876125ff565b612c3660608301866125ff565b8181036080830152612c49818486612bcd565b9050979650505050505050565b600081519050612c6581612a3f565b92915050565b600060208284031215612c8157612c806124eb565b5b6000612c8f84828501612c56565b91505092915050565b7f4e487b7100000000000000000000000000000000000000000000000000000000600052601160045260246000fd5b6000612cd282612553565b9150612cdd83612553565b9250828201905080821115612cf557612cf4612c98565b5b92915050565b6000612d0682612553565b9150612d1183612553565b9250828203905081811115612d2957612d28612c98565b5b92915050565b7f4549503731323a20556e696e697469616c697a65640000000000000000000000600082015250565b6000612d65601583612444565b9150612d7082612d2f565b602082019050919050565b60006020820190508181036000830152612d9481612d58565b9050919050565b7f4e487b7100000000000000000000000000000000000000000000000000000000600052604160045260246000fd5b6000819050919050565b600067ffffffffffffffff82169050919050565b6000819050919050565b6000612e0d612e08612e0384612dca565b612de8565b612dd4565b9050919050565b612e1d81612df2565b82525050565b6000602082019050612e386000830184612e14565b92915050565b600060c082019050612e5360008301896126bd565b612e6060208301886128a7565b612e6d60408301876128a7565b612e7a60608301866125ff565b612e8760808301856125ff565b612e9460a08301846125ff565b979650505050505050565b6000604082019050612eb460008301856128a7565b612ec160208301846128a7565b9392505050565b6000606082019050612edd60008301866128a7565b612eea60208301856125ff565b612ef760408301846125ff565b949350505050565b600060a082019050612f1460008301886126bd565b612f2160208301876126bd565b612f2e60408301866126bd565b612f3b60608301856125ff565b612f4860808301846128a7565b9695505050505050565b60008190508160005260206000209050919050565b60006020601f8301049050919050565b600082821b905092915050565b600060088302612fb47fffffffffffffffffffffffffffffffffffffffffffffffffffffffffffffffff82612f77565b612fbe8683612f77565b95508019841693508086168417925050509392505050565b6000612ff1612fec612fe784612553565b612de8565b612553565b9050919050565b6000819050919050565b61300b83612fd6565b61301f61301782612ff8565b848454612f84565b825550505050565b600090565b613034613027565b61303f818484613002565b505050565b5b818110156130635761305860008261302c565b600181019050613045565b5050565b601f8211156130a85761307981612f52565b61308284612f67565b81016020851015613091578190505b6130a561309d85612f67565b830182613044565b50505b505050565b600082821c905092915050565b60006130cb600019846008026130ad565b1980831691505092915050565b60006130e483836130ba565b9150826002028217905092915050565b6130fd82612439565b67ffffffffffffffff81111561311657613115612d9b565b5b6131208254612b7c565b61312b828285613067565b600060209050601f83116001811461315e576000841561314c578287015190505b61315685826130d8565b8655506131be565b601f19841661316c86612f52565b60005b828110156131945784890151825560018201915060208501945060208101905061316f565b868310156131b157848901516131ad601f8916826130ba565b8355505b6001600288020188555050505b505050505050565b60006080820190506131db60008301876126bd565b6131e86020830186612689565b6131f560408301856126bd565b61320260608301846126bd565b95945050505050565b7f4e487b7100000000000000000000000000000000000000000000000000000000600052602160045260246000fdfea2646970667358221220aff5e5a751a571612f6fac27ccc74e17fe33bf1934538a501d2b1a733fc5c8cf64736f6c63430008140033","opcodes":"PUSH1 0x80 PUSH1 0x40 MSTORE CALLVALUE DUP1 ISZERO PUSH3 0x11 JUMPI PUSH1 0x0 DUP1 REVERT JUMPDEST POP PUSH3 0x22 PUSH3 0x28 PUSH1 0x20 SHL PUSH1 0x20 SHR JUMP JUMPDEST PUSH3 0x19C JUMP JUMPDEST PUSH1 0x0 PUSH3 0x3A PUSH3 0x132 PUSH1 0x20 SHL PUSH1 0x20 SHR JUMP JUMPDEST SWAP1 POP DUP1 PUSH1 0x0 ADD PUSH1 0x8 SWAP1 SLOAD SWAP1 PUSH2 0x100 EXP SWAP1 DIV PUSH1 0xFF AND ISZERO PUSH3 0x86 JUMPI PUSH1 0x40 MLOAD PUSH32 0xF92EE8A900000000000000000000000000000000000000000000000000000000 DUP2 MSTORE PUSH1 0x4 ADD PUSH1 0x40 MLOAD DUP1 SWAP2 SUB SWAP1 REVERT JUMPDEST PUSH8 0xFFFFFFFFFFFFFFFF DUP1 AND DUP2 PUSH1 0x0 ADD PUSH1 0x0 SWAP1 SLOAD SWAP1 PUSH2 0x100 EXP SWAP1 DIV PUSH8 0xFFFFFFFFFFFFFFFF AND PUSH8 0xFFFFFFFFFFFFFFFF AND EQ PUSH3 0x12F JUMPI PUSH8 0xFFFFFFFFFFFFFFFF DUP2 PUSH1 0x0 ADD PUSH1 0x0 PUSH2 0x100 EXP DUP2 SLOAD DUP2 PUSH8 0xFFFFFFFFFFFFFFFF MUL NOT AND SWAP1 DUP4 PUSH8 0xFFFFFFFFFFFFFFFF AND MUL OR SWAP1 SSTORE POP PUSH32 0xC7F505B2F371AE2175EE4913F4499E1F2633A7B5936321EED1CDAEB6115181D2 PUSH8 0xFFFFFFFFFFFFFFFF PUSH1 0x40 MLOAD PUSH3 0x126 SWAP2 SWAP1 PUSH3 0x17F JUMP JUMPDEST PUSH1 0x40 MLOAD DUP1 SWAP2 SUB SWAP1 LOG1 JUMPDEST POP JUMP JUMPDEST PUSH1 0x0 PUSH32 0xF0C57E16840DF040F15088DC2F81FE391C3923BEC73E23A9662EFC9C229C6A00 SWAP1 POP SWAP1 JUMP JUMPDEST PUSH1 0x0 PUSH8 0xFFFFFFFFFFFFFFFF DUP3 AND SWAP1 POP SWAP2 SWAP1 POP JUMP JUMPDEST PUSH3 0x179 DUP2 PUSH3 0x15A JUMP JUMPDEST DUP3 MSTORE POP POP JUMP JUMPDEST PUSH1 0x0 PUSH1 0x20 DUP3 ADD SWAP1 POP PUSH3 0x196 PUSH1 0x0 DUP4 ADD DUP5 PUSH3 0x16E JUMP JUMPDEST SWAP3 SWAP2 POP POP JUMP JUMPDEST PUSH2 0x3270 DUP1 PUSH3 0x1AC PUSH1 0x0 CODECOPY PUSH1 0x0 RETURN INVALID PUSH1 0x80 PUSH1 0x40 MSTORE CALLVALUE DUP1 ISZERO PUSH2 0x10 JUMPI PUSH1 0x0 DUP1 REVERT JUMPDEST POP PUSH1 0x4 CALLDATASIZE LT PUSH2 0x18E JUMPI PUSH1 0x0 CALLDATALOAD PUSH1 0xE0 SHR DUP1 PUSH4 0x715018A6 GT PUSH2 0xDE JUMPI DUP1 PUSH4 0x95D89B41 GT PUSH2 0x97 JUMPI DUP1 PUSH4 0xD505ACCF GT PUSH2 0x71 JUMPI DUP1 PUSH4 0xD505ACCF EQ PUSH2 0x467 JUMPI DUP1 PUSH4 0xD9D98CE4 EQ PUSH2 0x483 JUMPI DUP1 PUSH4 0xDD62ED3E EQ PUSH2 0x4B3 JUMPI DUP1 PUSH4 0xF2FDE38B EQ PUSH2 0x4E3 JUMPI PUSH2 0x18E JUMP JUMPDEST DUP1 PUSH4 0x95D89B41 EQ PUSH2 0x3FD JUMPI DUP1 PUSH4 0xA9059CBB EQ PUSH2 0x41B JUMPI DUP1 PUSH4 0xC4D66DE8 EQ PUSH2 0x44B JUMPI PUSH2 0x18E JUMP JUMPDEST DUP1 PUSH4 0x715018A6 EQ PUSH2 0x35B JUMPI DUP1 PUSH4 0x79CC6790 EQ PUSH2 0x365 JUMPI DUP1 PUSH4 0x7ECEBE00 EQ PUSH2 0x381 JUMPI DUP1 PUSH4 0x8456CB59 EQ PUSH2 0x3B1 JUMPI DUP1 PUSH4 0x84B0196E EQ PUSH2 0x3BB JUMPI DUP1 PUSH4 0x8DA5CB5B EQ PUSH2 0x3DF JUMPI PUSH2 0x18E JUMP JUMPDEST DUP1 PUSH4 0x3F4BA83A GT PUSH2 0x14B JUMPI DUP1 PUSH4 0x5C975ABB GT PUSH2 0x125 JUMPI DUP1 PUSH4 0x5C975ABB EQ PUSH2 0x2AD JUMPI DUP1 PUSH4 0x5CFFE9DE EQ PUSH2 0x2CB JUMPI DUP1 PUSH4 0x613255AB EQ PUSH2 0x2FB JUMPI DUP1 PUSH4 0x70A08231 EQ PUSH2 0x32B JUMPI PUSH2 0x18E JUMP JUMPDEST DUP1 PUSH4 0x3F4BA83A EQ PUSH2 0x26B JUMPI DUP1 PUSH4 0x40C10F19 EQ PUSH2 0x275 JUMPI DUP1 PUSH4 0x42966C68 EQ PUSH2 0x291 JUMPI PUSH2 0x18E JUMP JUMPDEST DUP1 PUSH4 0x6FDDE03 EQ PUSH2 0x193 JUMPI DUP1 PUSH4 0x95EA7B3 EQ PUSH2 0x1B1 JUMPI DUP1 PUSH4 0x18160DDD EQ PUSH2 0x1E1 JUMPI DUP1 PUSH4 0x23B872DD EQ PUSH2 0x1FF JUMPI DUP1 PUSH4 0x313CE567 EQ PUSH2 0x22F JUMPI DUP1 PUSH4 0x3644E515 EQ PUSH2 0x24D JUMPI JUMPDEST PUSH1 0x0 DUP1 REVERT JUMPDEST PUSH2 0x19B PUSH2 0x4FF JUMP JUMPDEST PUSH1 0x40 MLOAD PUSH2 0x1A8 SWAP2 SWAP1 PUSH2 0x24C9 JUMP JUMPDEST PUSH1 0x40 MLOAD DUP1 SWAP2 SUB SWAP1 RETURN JUMPDEST PUSH2 0x1CB PUSH1 0x4 DUP1 CALLDATASIZE SUB DUP2 ADD SWAP1 PUSH2 0x1C6 SWAP2 SWAP1 PUSH2 0x2589 JUMP JUMPDEST PUSH2 0x5A0 JUMP JUMPDEST PUSH1 0x40 MLOAD PUSH2 0x1D8 SWAP2 SWAP1 PUSH2 0x25E4 JUMP JUMPDEST PUSH1 0x40 MLOAD DUP1 SWAP2 SUB SWAP1 RETURN JUMPDEST PUSH2 0x1E9 PUSH2 0x5C3 JUMP JUMPDEST PUSH1 0x40 MLOAD PUSH2 0x1F6 SWAP2 SWAP1 PUSH2 0x260E JUMP JUMPDEST PUSH1 0x40 MLOAD DUP1 SWAP2 SUB SWAP1 RETURN JUMPDEST PUSH2 0x219 PUSH1 0x4 DUP1 CALLDATASIZE SUB DUP2 ADD SWAP1 PUSH2 0x214 SWAP2 SWAP1 PUSH2 0x2629 JUMP JUMPDEST PUSH2 0x5DB JUMP JUMPDEST PUSH1 0x40 MLOAD PUSH2 0x226 SWAP2 SWAP1 PUSH2 0x25E4 JUMP JUMPDEST PUSH1 0x40 MLOAD DUP1 SWAP2 SUB SWAP1 RETURN JUMPDEST PUSH2 0x237 PUSH2 0x60A JUMP JUMPDEST PUSH1 0x40 MLOAD PUSH2 0x244 SWAP2 SWAP1 PUSH2 0x2698 JUMP JUMPDEST PUSH1 0x40 MLOAD DUP1 SWAP2 SUB SWAP1 RETURN JUMPDEST PUSH2 0x255 PUSH2 0x613 JUMP JUMPDEST PUSH1 0x40 MLOAD PUSH2 0x262 SWAP2 SWAP1 PUSH2 0x26CC JUMP JUMPDEST PUSH1 0x40 MLOAD DUP1 SWAP2 SUB SWAP1 RETURN JUMPDEST PUSH2 0x273 PUSH2 0x622 JUMP JUMPDEST STOP JUMPDEST PUSH2 0x28F PUSH1 0x4 DUP1 CALLDATASIZE SUB DUP2 ADD SWAP1 PUSH2 0x28A SWAP2 SWAP1 PUSH2 0x2589 JUMP JUMPDEST PUSH2 0x634 JUMP JUMPDEST STOP JUMPDEST PUSH2 0x2AB PUSH1 0x4 DUP1 CALLDATASIZE SUB DUP2 ADD SWAP1 PUSH2 0x2A6 SWAP2 SWAP1 PUSH2 0x26E7 JUMP JUMPDEST PUSH2 0x64A JUMP JUMPDEST STOP JUMPDEST PUSH2 0x2B5 PUSH2 0x65E JUMP JUMPDEST PUSH1 0x40 MLOAD PUSH2 0x2C2 SWAP2 SWAP1 PUSH2 0x25E4 JUMP JUMPDEST PUSH1 0x40 MLOAD DUP1 SWAP2 SUB SWAP1 RETURN JUMPDEST PUSH2 0x2E5 PUSH1 0x4 DUP1 CALLDATASIZE SUB DUP2 ADD SWAP1 PUSH2 0x2E0 SWAP2 SWAP1 PUSH2 0x27B7 JUMP JUMPDEST PUSH2 0x683 JUMP JUMPDEST PUSH1 0x40 MLOAD PUSH2 0x2F2 SWAP2 SWAP1 PUSH2 0x25E4 JUMP JUMPDEST PUSH1 0x40 MLOAD DUP1 SWAP2 SUB SWAP1 RETURN JUMPDEST PUSH2 0x315 PUSH1 0x4 DUP1 CALLDATASIZE SUB DUP2 ADD SWAP1 PUSH2 0x310 SWAP2 SWAP1 PUSH2 0x283F JUMP JUMPDEST PUSH2 0x880 JUMP JUMPDEST PUSH1 0x40 MLOAD PUSH2 0x322 SWAP2 SWAP1 PUSH2 0x260E JUMP JUMPDEST PUSH1 0x40 MLOAD DUP1 SWAP2 SUB SWAP1 RETURN JUMPDEST PUSH2 0x345 PUSH1 0x4 DUP1 CALLDATASIZE SUB DUP2 ADD SWAP1 PUSH2 0x340 SWAP2 SWAP1 PUSH2 0x283F JUMP JUMPDEST PUSH2 0x8F7 JUMP JUMPDEST PUSH1 0x40 MLOAD PUSH2 0x352 SWAP2 SWAP1 PUSH2 0x260E JUMP JUMPDEST PUSH1 0x40 MLOAD DUP1 SWAP2 SUB SWAP1 RETURN JUMPDEST PUSH2 0x363 PUSH2 0x94E JUMP JUMPDEST STOP JUMPDEST PUSH2 0x37F PUSH1 0x4 DUP1 CALLDATASIZE SUB DUP2 ADD SWAP1 PUSH2 0x37A SWAP2 SWAP1 PUSH2 0x2589 JUMP JUMPDEST PUSH2 0x962 JUMP JUMPDEST STOP JUMPDEST PUSH2 0x39B PUSH1 0x4 DUP1 CALLDATASIZE SUB DUP2 ADD SWAP1 PUSH2 0x396 SWAP2 SWAP1 PUSH2 0x283F JUMP JUMPDEST PUSH2 0x982 JUMP JUMPDEST PUSH1 0x40 MLOAD PUSH2 0x3A8 SWAP2 SWAP1 PUSH2 0x260E JUMP JUMPDEST PUSH1 0x40 MLOAD DUP1 SWAP2 SUB SWAP1 RETURN JUMPDEST PUSH2 0x3B9 PUSH2 0x994 JUMP JUMPDEST STOP JUMPDEST PUSH2 0x3C3 PUSH2 0x9A6 JUMP JUMPDEST PUSH1 0x40 MLOAD PUSH2 0x3D6 SWAP8 SWAP7 SWAP6 SWAP5 SWAP4 SWAP3 SWAP2 SWAP1 PUSH2 0x2974 JUMP JUMPDEST PUSH1 0x40 MLOAD DUP1 SWAP2 SUB SWAP1 RETURN JUMPDEST PUSH2 0x3E7 PUSH2 0xAB8 JUMP JUMPDEST PUSH1 0x40 MLOAD PUSH2 0x3F4 SWAP2 SWAP1 PUSH2 0x29F8 JUMP JUMPDEST PUSH1 0x40 MLOAD DUP1 SWAP2 SUB SWAP1 RETURN JUMPDEST PUSH2 0x405 PUSH2 0xAF0 JUMP JUMPDEST PUSH1 0x40 MLOAD PUSH2 0x412 SWAP2 SWAP1 PUSH2 0x24C9 JUMP JUMPDEST PUSH1 0x40 MLOAD DUP1 SWAP2 SUB SWAP1 RETURN JUMPDEST PUSH2 0x435 PUSH1 0x4 DUP1 CALLDATASIZE SUB DUP2 ADD SWAP1 PUSH2 0x430 SWAP2 SWAP1 PUSH2 0x2589 JUMP JUMPDEST PUSH2 0xB91 JUMP JUMPDEST PUSH1 0x40 MLOAD PUSH2 0x442 SWAP2 SWAP1 PUSH2 0x25E4 JUMP JUMPDEST PUSH1 0x40 MLOAD DUP1 SWAP2 SUB SWAP1 RETURN JUMPDEST PUSH2 0x465 PUSH1 0x4 DUP1 CALLDATASIZE SUB DUP2 ADD SWAP1 PUSH2 0x460 SWAP2 SWAP1 PUSH2 0x283F JUMP JUMPDEST PUSH2 0xBB4 JUMP JUMPDEST STOP JUMPDEST PUSH2 0x481 PUSH1 0x4 DUP1 CALLDATASIZE SUB DUP2 ADD SWAP1 PUSH2 0x47C SWAP2 SWAP1 PUSH2 0x2A6B JUMP JUMPDEST PUSH2 0xE0D JUMP JUMPDEST STOP JUMPDEST PUSH2 0x49D PUSH1 0x4 DUP1 CALLDATASIZE SUB DUP2 ADD SWAP1 PUSH2 0x498 SWAP2 SWAP1 PUSH2 0x2589 JUMP JUMPDEST PUSH2 0xF55 JUMP JUMPDEST PUSH1 0x40 MLOAD PUSH2 0x4AA SWAP2 SWAP1 PUSH2 0x260E JUMP JUMPDEST PUSH1 0x40 MLOAD DUP1 SWAP2 SUB SWAP1 RETURN JUMPDEST PUSH2 0x4CD PUSH1 0x4 DUP1 CALLDATASIZE SUB DUP2 ADD SWAP1 PUSH2 0x4C8 SWAP2 SWAP1 PUSH2 0x2B0D JUMP JUMPDEST PUSH2 0xFD9 JUMP JUMPDEST PUSH1 0x40 MLOAD PUSH2 0x4DA SWAP2 SWAP1 PUSH2 0x260E JUMP JUMPDEST PUSH1 0x40 MLOAD DUP1 SWAP2 SUB SWAP1 RETURN JUMPDEST PUSH2 0x4FD PUSH1 0x4 DUP1 CALLDATASIZE SUB DUP2 ADD SWAP1 PUSH2 0x4F8 SWAP2 SWAP1 PUSH2 0x283F JUMP JUMPDEST PUSH2 0x106E JUMP JUMPDEST STOP JUMPDEST PUSH1 0x60 PUSH1 0x0 PUSH2 0x50B PUSH2 0x10F4 JUMP JUMPDEST SWAP1 POP DUP1 PUSH1 0x3 ADD DUP1 SLOAD PUSH2 0x51C SWAP1 PUSH2 0x2B7C JUMP JUMPDEST DUP1 PUSH1 0x1F ADD PUSH1 0x20 DUP1 SWAP2 DIV MUL PUSH1 0x20 ADD PUSH1 0x40 MLOAD SWAP1 DUP2 ADD PUSH1 0x40 MSTORE DUP1 SWAP3 SWAP2 SWAP1 DUP2 DUP2 MSTORE PUSH1 0x20 ADD DUP3 DUP1 SLOAD PUSH2 0x548 SWAP1 PUSH2 0x2B7C JUMP JUMPDEST DUP1 ISZERO PUSH2 0x595 JUMPI DUP1 PUSH1 0x1F LT PUSH2 0x56A JUMPI PUSH2 0x100 DUP1 DUP4 SLOAD DIV MUL DUP4 MSTORE SWAP2 PUSH1 0x20 ADD SWAP2 PUSH2 0x595 JUMP JUMPDEST DUP3 ADD SWAP2 SWAP1 PUSH1 0x0 MSTORE PUSH1 0x20 PUSH1 0x0 KECCAK256 SWAP1 JUMPDEST DUP2 SLOAD DUP2 MSTORE SWAP1 PUSH1 0x1 ADD SWAP1 PUSH1 0x20 ADD DUP1 DUP4 GT PUSH2 0x578 JUMPI DUP3 SWAP1 SUB PUSH1 0x1F AND DUP3 ADD SWAP2 JUMPDEST POP POP POP POP POP SWAP2 POP POP SWAP1 JUMP JUMPDEST PUSH1 0x0 DUP1 PUSH2 0x5AB PUSH2 0x111C JUMP JUMPDEST SWAP1 POP PUSH2 0x5B8 DUP2 DUP6 DUP6 PUSH2 0x1124 JUMP JUMPDEST PUSH1 0x1 SWAP2 POP POP SWAP3 SWAP2 POP POP JUMP JUMPDEST PUSH1 0x0 DUP1 PUSH2 0x5CE PUSH2 0x10F4 JUMP JUMPDEST SWAP1 POP DUP1 PUSH1 0x2 ADD SLOAD SWAP2 POP POP SWAP1 JUMP JUMPDEST PUSH1 0x0 DUP1 PUSH2 0x5E6 PUSH2 0x111C JUMP JUMPDEST SWAP1 POP PUSH2 0x5F3 DUP6 DUP3 DUP6 PUSH2 0x1136 JUMP JUMPDEST PUSH2 0x5FE DUP6 DUP6 DUP6 PUSH2 0x11CA JUMP JUMPDEST PUSH1 0x1 SWAP2 POP POP SWAP4 SWAP3 POP POP POP JUMP JUMPDEST PUSH1 0x0 PUSH1 0x12 SWAP1 POP SWAP1 JUMP JUMPDEST PUSH1 0x0 PUSH2 0x61D PUSH2 0x12BE JUMP JUMPDEST SWAP1 POP SWAP1 JUMP JUMPDEST PUSH2 0x62A PUSH2 0x12CD JUMP JUMPDEST PUSH2 0x632 PUSH2 0x1354 JUMP JUMPDEST JUMP JUMPDEST PUSH2 0x63C PUSH2 0x12CD JUMP JUMPDEST PUSH2 0x646 DUP3 DUP3 PUSH2 0x13C6 JUMP JUMPDEST POP POP JUMP JUMPDEST PUSH2 0x65B PUSH2 0x655 PUSH2 0x111C JUMP JUMPDEST DUP3 PUSH2 0x1448 JUMP JUMPDEST POP JUMP JUMPDEST PUSH1 0x0 DUP1 PUSH2 0x669 PUSH2 0x14CA JUMP JUMPDEST SWAP1 POP DUP1 PUSH1 0x0 ADD PUSH1 0x0 SWAP1 SLOAD SWAP1 PUSH2 0x100 EXP SWAP1 DIV PUSH1 0xFF AND SWAP2 POP POP SWAP1 JUMP JUMPDEST PUSH1 0x0 DUP1 PUSH2 0x68F DUP7 PUSH2 0x880 JUMP JUMPDEST SWAP1 POP DUP1 DUP6 GT ISZERO PUSH2 0x6D6 JUMPI DUP1 PUSH1 0x40 MLOAD PUSH32 0xFD9A760900000000000000000000000000000000000000000000000000000000 DUP2 MSTORE PUSH1 0x4 ADD PUSH2 0x6CD SWAP2 SWAP1 PUSH2 0x260E JUMP JUMPDEST PUSH1 0x40 MLOAD DUP1 SWAP2 SUB SWAP1 REVERT JUMPDEST PUSH1 0x0 PUSH2 0x6E2 DUP8 DUP8 PUSH2 0xF55 JUMP JUMPDEST SWAP1 POP PUSH2 0x6EE DUP9 DUP8 PUSH2 0x13C6 JUMP JUMPDEST PUSH32 0x439148F0BBC682CA079E46D6E2C2F0C1E3B820F1A291B069D8882ABF8CF18DD9 DUP9 PUSH20 0xFFFFFFFFFFFFFFFFFFFFFFFFFFFFFFFFFFFFFFFF AND PUSH4 0x23E30C8B PUSH2 0x733 PUSH2 0x111C JUMP JUMPDEST DUP11 DUP11 DUP7 DUP12 DUP12 PUSH1 0x40 MLOAD DUP8 PUSH4 0xFFFFFFFF AND PUSH1 0xE0 SHL DUP2 MSTORE PUSH1 0x4 ADD PUSH2 0x759 SWAP7 SWAP6 SWAP5 SWAP4 SWAP3 SWAP2 SWAP1 PUSH2 0x2BFA JUMP JUMPDEST PUSH1 0x20 PUSH1 0x40 MLOAD DUP1 DUP4 SUB DUP2 PUSH1 0x0 DUP8 GAS CALL ISZERO DUP1 ISZERO PUSH2 0x778 JUMPI RETURNDATASIZE PUSH1 0x0 DUP1 RETURNDATACOPY RETURNDATASIZE PUSH1 0x0 REVERT JUMPDEST POP POP POP POP PUSH1 0x40 MLOAD RETURNDATASIZE PUSH1 0x1F NOT PUSH1 0x1F DUP3 ADD AND DUP3 ADD DUP1 PUSH1 0x40 MSTORE POP DUP2 ADD SWAP1 PUSH2 0x79C SWAP2 SWAP1 PUSH2 0x2C6B JUMP JUMPDEST EQ PUSH2 0x7DE JUMPI DUP8 PUSH1 0x40 MLOAD PUSH32 0x678C5B0000000000000000000000000000000000000000000000000000000000 DUP2 MSTORE PUSH1 0x4 ADD PUSH2 0x7D5 SWAP2 SWAP1 PUSH2 0x29F8 JUMP JUMPDEST PUSH1 0x40 MLOAD DUP1 SWAP2 SUB SWAP1 REVERT JUMPDEST PUSH1 0x0 PUSH2 0x7E8 PUSH2 0x14F2 JUMP JUMPDEST SWAP1 POP PUSH2 0x800 DUP10 ADDRESS DUP5 DUP11 PUSH2 0x7FB SWAP2 SWAP1 PUSH2 0x2CC7 JUMP JUMPDEST PUSH2 0x1136 JUMP JUMPDEST PUSH1 0x0 DUP3 EQ DUP1 PUSH2 0x83B JUMPI POP PUSH1 0x0 PUSH20 0xFFFFFFFFFFFFFFFFFFFFFFFFFFFFFFFFFFFFFFFF AND DUP2 PUSH20 0xFFFFFFFFFFFFFFFFFFFFFFFFFFFFFFFFFFFFFFFF AND EQ JUMPDEST ISZERO PUSH2 0x85A JUMPI PUSH2 0x855 DUP10 DUP4 DUP10 PUSH2 0x850 SWAP2 SWAP1 PUSH2 0x2CC7 JUMP JUMPDEST PUSH2 0x1448 JUMP JUMPDEST PUSH2 0x870 JUMP JUMPDEST PUSH2 0x864 DUP10 DUP9 PUSH2 0x1448 JUMP JUMPDEST PUSH2 0x86F DUP10 DUP3 DUP5 PUSH2 0x11CA JUMP JUMPDEST JUMPDEST PUSH1 0x1 SWAP4 POP POP POP POP SWAP6 SWAP5 POP POP POP POP POP JUMP JUMPDEST PUSH1 0x0 ADDRESS PUSH20 0xFFFFFFFFFFFFFFFFFFFFFFFFFFFFFFFFFFFFFFFF AND DUP3 PUSH20 0xFFFFFFFFFFFFFFFFFFFFFFFFFFFFFFFFFFFFFFFF AND EQ PUSH2 0x8BC JUMPI PUSH1 0x0 PUSH2 0x8F0 JUMP JUMPDEST PUSH2 0x8C4 PUSH2 0x5C3 JUMP JUMPDEST PUSH32 0xFFFFFFFFFFFFFFFFFFFFFFFFFFFFFFFFFFFFFFFFFFFFFFFFFFFFFFFFFFFFFFFF PUSH2 0x8EF SWAP2 SWAP1 PUSH2 0x2CFB JUMP JUMPDEST JUMPDEST SWAP1 POP SWAP2 SWAP1 POP JUMP JUMPDEST PUSH1 0x0 DUP1 PUSH2 0x902 PUSH2 0x10F4 JUMP JUMPDEST SWAP1 POP DUP1 PUSH1 0x0 ADD PUSH1 0x0 DUP5 PUSH20 0xFFFFFFFFFFFFFFFFFFFFFFFFFFFFFFFFFFFFFFFF AND PUSH20 0xFFFFFFFFFFFFFFFFFFFFFFFFFFFFFFFFFFFFFFFF AND DUP2 MSTORE PUSH1 0x20 ADD SWAP1 DUP2 MSTORE PUSH1 0x20 ADD PUSH1 0x0 KECCAK256 SLOAD SWAP2 POP POP SWAP2 SWAP1 POP JUMP JUMPDEST PUSH2 0x956 PUSH2 0x12CD JUMP JUMPDEST PUSH2 0x960 PUSH1 0x0 PUSH2 0x14F7 JUMP JUMPDEST JUMP JUMPDEST PUSH2 0x974 DUP3 PUSH2 0x96E PUSH2 0x111C JUMP JUMPDEST DUP4 PUSH2 0x1136 JUMP JUMPDEST PUSH2 0x97E DUP3 DUP3 PUSH2 0x1448 JUMP JUMPDEST POP POP JUMP JUMPDEST PUSH1 0x0 PUSH2 0x98D DUP3 PUSH2 0x15CE JUMP JUMPDEST SWAP1 POP SWAP2 SWAP1 POP JUMP JUMPDEST PUSH2 0x99C PUSH2 0x12CD JUMP JUMPDEST PUSH2 0x9A4 PUSH2 0x1625 JUMP JUMPDEST JUMP JUMPDEST PUSH1 0x0 PUSH1 0x60 DUP1 PUSH1 0x0 DUP1 PUSH1 0x0 PUSH1 0x60 PUSH1 0x0 PUSH2 0x9BC PUSH2 0x1697 JUMP JUMPDEST SWAP1 POP PUSH1 0x0 DUP1 SHL DUP2 PUSH1 0x0 ADD SLOAD EQ DUP1 ISZERO PUSH2 0x9DA JUMPI POP PUSH1 0x0 DUP1 SHL DUP2 PUSH1 0x1 ADD SLOAD EQ JUMPDEST PUSH2 0xA19 JUMPI PUSH1 0x40 MLOAD PUSH32 0x8C379A000000000000000000000000000000000000000000000000000000000 DUP2 MSTORE PUSH1 0x4 ADD PUSH2 0xA10 SWAP1 PUSH2 0x2D7B JUMP JUMPDEST PUSH1 0x40 MLOAD DUP1 SWAP2 SUB SWAP1 REVERT JUMPDEST PUSH2 0xA21 PUSH2 0x16BF JUMP JUMPDEST PUSH2 0xA29 PUSH2 0x1760 JUMP JUMPDEST CHAINID ADDRESS PUSH1 0x0 DUP1 SHL PUSH1 0x0 PUSH8 0xFFFFFFFFFFFFFFFF DUP2 GT ISZERO PUSH2 0xA4A JUMPI PUSH2 0xA49 PUSH2 0x2D9B JUMP JUMPDEST JUMPDEST PUSH1 0x40 MLOAD SWAP1 DUP1 DUP3 MSTORE DUP1 PUSH1 0x20 MUL PUSH1 0x20 ADD DUP3 ADD PUSH1 0x40 MSTORE DUP1 ISZERO PUSH2 0xA78 JUMPI DUP2 PUSH1 0x20 ADD PUSH1 0x20 DUP3 MUL DUP1 CALLDATASIZE DUP4 CALLDATACOPY DUP1 DUP3 ADD SWAP2 POP POP SWAP1 POP JUMPDEST POP PUSH32 0xF00000000000000000000000000000000000000000000000000000000000000 SWAP6 SWAP5 SWAP4 SWAP3 SWAP2 SWAP1 SWAP8 POP SWAP8 POP SWAP8 POP SWAP8 POP SWAP8 POP SWAP8 POP SWAP8 POP POP SWAP1 SWAP2 SWAP3 SWAP4 SWAP5 SWAP6 SWAP7 JUMP JUMPDEST PUSH1 0x0 DUP1 PUSH2 0xAC3 PUSH2 0x1801 JUMP JUMPDEST SWAP1 POP DUP1 PUSH1 0x0 ADD PUSH1 0x0 SWAP1 SLOAD SWAP1 PUSH2 0x100 EXP SWAP1 DIV PUSH20 0xFFFFFFFFFFFFFFFFFFFFFFFFFFFFFFFFFFFFFFFF AND SWAP2 POP POP SWAP1 JUMP JUMPDEST PUSH1 0x60 PUSH1 0x0 PUSH2 0xAFC PUSH2 0x10F4 JUMP JUMPDEST SWAP1 POP DUP1 PUSH1 0x4 ADD DUP1 SLOAD PUSH2 0xB0D SWAP1 PUSH2 0x2B7C JUMP JUMPDEST DUP1 PUSH1 0x1F ADD PUSH1 0x20 DUP1 SWAP2 DIV MUL PUSH1 0x20 ADD PUSH1 0x40 MLOAD SWAP1 DUP2 ADD PUSH1 0x40 MSTORE DUP1 SWAP3 SWAP2 SWAP1 DUP2 DUP2 MSTORE PUSH1 0x20 ADD DUP3 DUP1 SLOAD PUSH2 0xB39 SWAP1 PUSH2 0x2B7C JUMP JUMPDEST DUP1 ISZERO PUSH2 0xB86 JUMPI DUP1 PUSH1 0x1F LT PUSH2 0xB5B JUMPI PUSH2 0x100 DUP1 DUP4 SLOAD DIV MUL DUP4 MSTORE SWAP2 PUSH1 0x20 ADD SWAP2 PUSH2 0xB86 JUMP JUMPDEST DUP3 ADD SWAP2 SWAP1 PUSH1 0x0 MSTORE PUSH1 0x20 PUSH1 0x0 KECCAK256 SWAP1 JUMPDEST DUP2 SLOAD DUP2 MSTORE SWAP1 PUSH1 0x1 ADD SWAP1 PUSH1 0x20 ADD DUP1 DUP4 GT PUSH2 0xB69 JUMPI DUP3 SWAP1 SUB PUSH1 0x1F AND DUP3 ADD SWAP2 JUMPDEST POP POP POP POP POP SWAP2 POP POP SWAP1 JUMP JUMPDEST PUSH1 0x0 DUP1 PUSH2 0xB9C PUSH2 0x111C JUMP JUMPDEST SWAP1 POP PUSH2 0xBA9 DUP2 DUP6 DUP6 PUSH2 0x11CA JUMP JUMPDEST PUSH1 0x1 SWAP2 POP POP SWAP3 SWAP2 POP POP JUMP JUMPDEST PUSH1 0x0 PUSH2 0xBBE PUSH2 0x1829 JUMP JUMPDEST SWAP1 POP PUSH1 0x0 DUP2 PUSH1 0x0 ADD PUSH1 0x8 SWAP1 SLOAD SWAP1 PUSH2 0x100 EXP SWAP1 DIV PUSH1 0xFF AND ISZERO SWAP1 POP PUSH1 0x0 DUP3 PUSH1 0x0 ADD PUSH1 0x0 SWAP1 SLOAD SWAP1 PUSH2 0x100 EXP SWAP1 DIV PUSH8 0xFFFFFFFFFFFFFFFF AND SWAP1 POP PUSH1 0x0 DUP1 DUP3 PUSH8 0xFFFFFFFFFFFFFFFF AND EQ DUP1 ISZERO PUSH2 0xC0C JUMPI POP DUP3 JUMPDEST SWAP1 POP PUSH1 0x0 PUSH1 0x1 DUP4 PUSH8 0xFFFFFFFFFFFFFFFF AND EQ DUP1 ISZERO PUSH2 0xC41 JUMPI POP PUSH1 0x0 ADDRESS PUSH20 0xFFFFFFFFFFFFFFFFFFFFFFFFFFFFFFFFFFFFFFFF AND EXTCODESIZE EQ JUMPDEST SWAP1 POP DUP2 ISZERO DUP1 ISZERO PUSH2 0xC4F JUMPI POP DUP1 ISZERO JUMPDEST ISZERO PUSH2 0xC86 JUMPI PUSH1 0x40 MLOAD PUSH32 0xF92EE8A900000000000000000000000000000000000000000000000000000000 DUP2 MSTORE PUSH1 0x4 ADD PUSH1 0x40 MLOAD DUP1 SWAP2 SUB SWAP1 REVERT JUMPDEST PUSH1 0x1 DUP6 PUSH1 0x0 ADD PUSH1 0x0 PUSH2 0x100 EXP DUP2 SLOAD DUP2 PUSH8 0xFFFFFFFFFFFFFFFF MUL NOT AND SWAP1 DUP4 PUSH8 0xFFFFFFFFFFFFFFFF AND MUL OR SWAP1 SSTORE POP DUP4 ISZERO PUSH2 0xCD6 JUMPI PUSH1 0x1 DUP6 PUSH1 0x0 ADD PUSH1 0x8 PUSH2 0x100 EXP DUP2 SLOAD DUP2 PUSH1 0xFF MUL NOT AND SWAP1 DUP4 ISZERO ISZERO MUL OR SWAP1 SSTORE POP JUMPDEST PUSH2 0xD4A PUSH1 0x40 MLOAD DUP1 PUSH1 0x40 ADD PUSH1 0x40 MSTORE DUP1 PUSH1 0x6 DUP2 MSTORE PUSH1 0x20 ADD PUSH32 0x4D6F436F4B6F0000000000000000000000000000000000000000000000000000 DUP2 MSTORE POP PUSH1 0x40 MLOAD DUP1 PUSH1 0x40 ADD PUSH1 0x40 MSTORE DUP1 PUSH1 0x3 DUP2 MSTORE PUSH1 0x20 ADD PUSH32 0x4D434B0000000000000000000000000000000000000000000000000000000000 DUP2 MSTORE POP PUSH2 0x1851 JUMP JUMPDEST PUSH2 0xD52 PUSH2 0x1867 JUMP JUMPDEST PUSH2 0xD5A PUSH2 0x1871 JUMP JUMPDEST PUSH2 0xD63 DUP7 PUSH2 0x1883 JUMP JUMPDEST PUSH2 0xDA1 PUSH1 0x40 MLOAD DUP1 PUSH1 0x40 ADD PUSH1 0x40 MSTORE DUP1 PUSH1 0x6 DUP2 MSTORE PUSH1 0x20 ADD PUSH32 0x4D6F436F4B6F0000000000000000000000000000000000000000000000000000 DUP2 MSTORE POP PUSH2 0x1897 JUMP JUMPDEST PUSH2 0xDA9 PUSH2 0x18E1 JUMP JUMPDEST DUP4 ISZERO PUSH2 0xE05 JUMPI PUSH1 0x0 DUP6 PUSH1 0x0 ADD PUSH1 0x8 PUSH2 0x100 EXP DUP2 SLOAD DUP2 PUSH1 0xFF MUL NOT AND SWAP1 DUP4 ISZERO ISZERO MUL OR SWAP1 SSTORE POP PUSH32 0xC7F505B2F371AE2175EE4913F4499E1F2633A7B5936321EED1CDAEB6115181D2 PUSH1 0x1 PUSH1 0x40 MLOAD PUSH2 0xDFC SWAP2 SWAP1 PUSH2 0x2E23 JUMP JUMPDEST PUSH1 0x40 MLOAD DUP1 SWAP2 SUB SWAP1 LOG1 JUMPDEST POP POP POP POP POP POP JUMP JUMPDEST DUP4 TIMESTAMP GT ISZERO PUSH2 0xE52 JUMPI DUP4 PUSH1 0x40 MLOAD PUSH32 0x6279130200000000000000000000000000000000000000000000000000000000 DUP2 MSTORE PUSH1 0x4 ADD PUSH2 0xE49 SWAP2 SWAP1 PUSH2 0x260E JUMP JUMPDEST PUSH1 0x40 MLOAD DUP1 SWAP2 SUB SWAP1 REVERT JUMPDEST PUSH1 0x0 PUSH32 0x6E71EDAE12B1B97F4D1F60370FEF10105FA2FAAE0126114A169C64845D6126C9 DUP9 DUP9 DUP9 PUSH2 0xE81 DUP13 PUSH2 0x18EB JUMP JUMPDEST DUP10 PUSH1 0x40 MLOAD PUSH1 0x20 ADD PUSH2 0xE97 SWAP7 SWAP6 SWAP5 SWAP4 SWAP3 SWAP2 SWAP1 PUSH2 0x2E3E JUMP JUMPDEST PUSH1 0x40 MLOAD PUSH1 0x20 DUP2 DUP4 SUB SUB DUP2 MSTORE SWAP1 PUSH1 0x40 MSTORE DUP1 MLOAD SWAP1 PUSH1 0x20 ADD KECCAK256 SWAP1 POP PUSH1 0x0 PUSH2 0xEBA DUP3 PUSH2 0x1950 JUMP JUMPDEST SWAP1 POP PUSH1 0x0 PUSH2 0xECA DUP3 DUP8 DUP8 DUP8 PUSH2 0x196A JUMP JUMPDEST SWAP1 POP DUP10 PUSH20 0xFFFFFFFFFFFFFFFFFFFFFFFFFFFFFFFFFFFFFFFF AND DUP2 PUSH20 0xFFFFFFFFFFFFFFFFFFFFFFFFFFFFFFFFFFFFFFFF AND EQ PUSH2 0xF3E JUMPI DUP1 DUP11 PUSH1 0x40 MLOAD PUSH32 0x4B800E4600000000000000000000000000000000000000000000000000000000 DUP2 MSTORE PUSH1 0x4 ADD PUSH2 0xF35 SWAP3 SWAP2 SWAP1 PUSH2 0x2E9F JUMP JUMPDEST PUSH1 0x40 MLOAD DUP1 SWAP2 SUB SWAP1 REVERT JUMPDEST PUSH2 0xF49 DUP11 DUP11 DUP11 PUSH2 0x1124 JUMP JUMPDEST POP POP POP POP POP POP POP POP POP POP JUMP JUMPDEST PUSH1 0x0 ADDRESS PUSH20 0xFFFFFFFFFFFFFFFFFFFFFFFFFFFFFFFFFFFFFFFF AND DUP4 PUSH20 0xFFFFFFFFFFFFFFFFFFFFFFFFFFFFFFFFFFFFFFFF AND EQ PUSH2 0xFC7 JUMPI DUP3 PUSH1 0x40 MLOAD PUSH32 0xB5A7DB9200000000000000000000000000000000000000000000000000000000 DUP2 MSTORE PUSH1 0x4 ADD PUSH2 0xFBE SWAP2 SWAP1 PUSH2 0x29F8 JUMP JUMPDEST PUSH1 0x40 MLOAD DUP1 SWAP2 SUB SWAP1 REVERT JUMPDEST PUSH2 0xFD1 DUP4 DUP4 PUSH2 0x199A JUMP JUMPDEST SWAP1 POP SWAP3 SWAP2 POP POP JUMP JUMPDEST PUSH1 0x0 DUP1 PUSH2 0xFE4 PUSH2 0x10F4 JUMP JUMPDEST SWAP1 POP DUP1 PUSH1 0x1 ADD PUSH1 0x0 DUP6 PUSH20 0xFFFFFFFFFFFFFFFFFFFFFFFFFFFFFFFFFFFFFFFF AND PUSH20 0xFFFFFFFFFFFFFFFFFFFFFFFFFFFFFFFFFFFFFFFF AND DUP2 MSTORE PUSH1 0x20 ADD SWAP1 DUP2 MSTORE PUSH1 0x20 ADD PUSH1 0x0 KECCAK256 PUSH1 0x0 DUP5 PUSH20 0xFFFFFFFFFFFFFFFFFFFFFFFFFFFFFFFFFFFFFFFF AND PUSH20 0xFFFFFFFFFFFFFFFFFFFFFFFFFFFFFFFFFFFFFFFF AND DUP2 MSTORE PUSH1 0x20 ADD SWAP1 DUP2 MSTORE PUSH1 0x20 ADD PUSH1 0x0 KECCAK256 SLOAD SWAP2 POP POP SWAP3 SWAP2 POP POP JUMP JUMPDEST PUSH2 0x1076 PUSH2 0x12CD JUMP JUMPDEST PUSH1 0x0 PUSH20 0xFFFFFFFFFFFFFFFFFFFFFFFFFFFFFFFFFFFFFFFF AND DUP2 PUSH20 0xFFFFFFFFFFFFFFFFFFFFFFFFFFFFFFFFFFFFFFFF AND SUB PUSH2 0x10E8 JUMPI PUSH1 0x0 PUSH1 0x40 MLOAD PUSH32 0x1E4FBDF700000000000000000000000000000000000000000000000000000000 DUP2 MSTORE PUSH1 0x4 ADD PUSH2 0x10DF SWAP2 SWAP1 PUSH2 0x29F8 JUMP JUMPDEST PUSH1 0x40 MLOAD DUP1 SWAP2 SUB SWAP1 REVERT JUMPDEST PUSH2 0x10F1 DUP2 PUSH2 0x14F7 JUMP JUMPDEST POP JUMP JUMPDEST PUSH1 0x0 PUSH32 0x52C63247E1F47DB19D5CE0460030C497F067CA4CEBF71BA98EEADABE20BACE00 SWAP1 POP SWAP1 JUMP JUMPDEST PUSH1 0x0 CALLER SWAP1 POP SWAP1 JUMP JUMPDEST PUSH2 0x1131 DUP4 DUP4 DUP4 PUSH1 0x1 PUSH2 0x19A2 JUMP JUMPDEST POP POP POP JUMP JUMPDEST PUSH1 0x0 PUSH2 0x1142 DUP5 DUP5 PUSH2 0xFD9 JUMP JUMPDEST SWAP1 POP PUSH32 0xFFFFFFFFFFFFFFFFFFFFFFFFFFFFFFFFFFFFFFFFFFFFFFFFFFFFFFFFFFFFFFFF DUP2 EQ PUSH2 0x11C4 JUMPI DUP2 DUP2 LT ISZERO PUSH2 0x11B4 JUMPI DUP3 DUP2 DUP4 PUSH1 0x40 MLOAD PUSH32 0xFB8F41B200000000000000000000000000000000000000000000000000000000 DUP2 MSTORE PUSH1 0x4 ADD PUSH2 0x11AB SWAP4 SWAP3 SWAP2 SWAP1 PUSH2 0x2EC8 JUMP JUMPDEST PUSH1 0x40 MLOAD DUP1 SWAP2 SUB SWAP1 REVERT JUMPDEST PUSH2 0x11C3 DUP5 DUP5 DUP5 DUP5 SUB PUSH1 0x0 PUSH2 0x19A2 JUMP JUMPDEST JUMPDEST POP POP POP POP JUMP JUMPDEST PUSH1 0x0 PUSH20 0xFFFFFFFFFFFFFFFFFFFFFFFFFFFFFFFFFFFFFFFF AND DUP4 PUSH20 0xFFFFFFFFFFFFFFFFFFFFFFFFFFFFFFFFFFFFFFFF AND SUB PUSH2 0x123C JUMPI PUSH1 0x0 PUSH1 0x40 MLOAD PUSH32 0x96C6FD1E00000000000000000000000000000000000000000000000000000000 DUP2 MSTORE PUSH1 0x4 ADD PUSH2 0x1233 SWAP2 SWAP1 PUSH2 0x29F8 JUMP JUMPDEST PUSH1 0x40 MLOAD DUP1 SWAP2 SUB SWAP1 REVERT JUMPDEST PUSH1 0x0 PUSH20 0xFFFFFFFFFFFFFFFFFFFFFFFFFFFFFFFFFFFFFFFF AND DUP3 PUSH20 0xFFFFFFFFFFFFFFFFFFFFFFFFFFFFFFFFFFFFFFFF AND SUB PUSH2 0x12AE JUMPI PUSH1 0x0 PUSH1 0x40 MLOAD PUSH32 0xEC442F0500000000000000000000000000000000000000000000000000000000 DUP2 MSTORE PUSH1 0x4 ADD PUSH2 0x12A5 SWAP2 SWAP1 PUSH2 0x29F8 JUMP JUMPDEST PUSH1 0x40 MLOAD DUP1 SWAP2 SUB SWAP1 REVERT JUMPDEST PUSH2 0x12B9 DUP4 DUP4 DUP4 PUSH2 0x1B88 JUMP JUMPDEST POP POP POP JUMP JUMPDEST PUSH1 0x0 PUSH2 0x12C8 PUSH2 0x1B98 JUMP JUMPDEST SWAP1 POP SWAP1 JUMP JUMPDEST PUSH2 0x12D5 PUSH2 0x111C JUMP JUMPDEST PUSH20 0xFFFFFFFFFFFFFFFFFFFFFFFFFFFFFFFFFFFFFFFF AND PUSH2 0x12F3 PUSH2 0xAB8 JUMP JUMPDEST PUSH20 0xFFFFFFFFFFFFFFFFFFFFFFFFFFFFFFFFFFFFFFFF AND EQ PUSH2 0x1352 JUMPI PUSH2 0x1316 PUSH2 0x111C JUMP JUMPDEST PUSH1 0x40 MLOAD PUSH32 0x118CDAA700000000000000000000000000000000000000000000000000000000 DUP2 MSTORE PUSH1 0x4 ADD PUSH2 0x1349 SWAP2 SWAP1 PUSH2 0x29F8 JUMP JUMPDEST PUSH1 0x40 MLOAD DUP1 SWAP2 SUB SWAP1 REVERT JUMPDEST JUMP JUMPDEST PUSH2 0x135C PUSH2 0x1BFC JUMP JUMPDEST PUSH1 0x0 PUSH2 0x1366 PUSH2 0x14CA JUMP JUMPDEST SWAP1 POP PUSH1 0x0 DUP2 PUSH1 0x0 ADD PUSH1 0x0 PUSH2 0x100 EXP DUP2 SLOAD DUP2 PUSH1 0xFF MUL NOT AND SWAP1 DUP4 ISZERO ISZERO MUL OR SWAP1 SSTORE POP PUSH32 0x5DB9EE0A495BF2E6FF9C91A7834C1BA4FDD244A5E8AA4E537BD38AEAE4B073AA PUSH2 0x13AE PUSH2 0x111C JUMP JUMPDEST PUSH1 0x40 MLOAD PUSH2 0x13BB SWAP2 SWAP1 PUSH2 0x29F8 JUMP JUMPDEST PUSH1 0x40 MLOAD DUP1 SWAP2 SUB SWAP1 LOG1 POP JUMP JUMPDEST PUSH1 0x0 PUSH20 0xFFFFFFFFFFFFFFFFFFFFFFFFFFFFFFFFFFFFFFFF AND DUP3 PUSH20 0xFFFFFFFFFFFFFFFFFFFFFFFFFFFFFFFFFFFFFFFF AND SUB PUSH2 0x1438 JUMPI PUSH1 0x0 PUSH1 0x40 MLOAD PUSH32 0xEC442F0500000000000000000000000000000000000000000000000000000000 DUP2 MSTORE PUSH1 0x4 ADD PUSH2 0x142F SWAP2 SWAP1 PUSH2 0x29F8 JUMP JUMPDEST PUSH1 0x40 MLOAD DUP1 SWAP2 SUB SWAP1 REVERT JUMPDEST PUSH2 0x1444 PUSH1 0x0 DUP4 DUP4 PUSH2 0x1B88 JUMP JUMPDEST POP POP JUMP JUMPDEST PUSH1 0x0 PUSH20 0xFFFFFFFFFFFFFFFFFFFFFFFFFFFFFFFFFFFFFFFF AND DUP3 PUSH20 0xFFFFFFFFFFFFFFFFFFFFFFFFFFFFFFFFFFFFFFFF AND SUB PUSH2 0x14BA JUMPI PUSH1 0x0 PUSH1 0x40 MLOAD PUSH32 0x96C6FD1E00000000000000000000000000000000000000000000000000000000 DUP2 MSTORE PUSH1 0x4 ADD PUSH2 0x14B1 SWAP2 SWAP1 PUSH2 0x29F8 JUMP JUMPDEST PUSH1 0x40 MLOAD DUP1 SWAP2 SUB SWAP1 REVERT JUMPDEST PUSH2 0x14C6 DUP3 PUSH1 0x0 DUP4 PUSH2 0x1B88 JUMP JUMPDEST POP POP JUMP JUMPDEST PUSH1 0x0 PUSH32 0xCD5ED15C6E187E77E9AEE88184C21F4F2182AB5827CB3B7E07FBEDCD63F03300 SWAP1 POP SWAP1 JUMP JUMPDEST PUSH1 0x0 SWAP1 JUMP JUMPDEST PUSH1 0x0 PUSH2 0x1501 PUSH2 0x1801 JUMP JUMPDEST SWAP1 POP PUSH1 0x0 DUP2 PUSH1 0x0 ADD PUSH1 0x0 SWAP1 SLOAD SWAP1 PUSH2 0x100 EXP SWAP1 DIV PUSH20 0xFFFFFFFFFFFFFFFFFFFFFFFFFFFFFFFFFFFFFFFF AND SWAP1 POP DUP3 DUP3 PUSH1 0x0 ADD PUSH1 0x0 PUSH2 0x100 EXP DUP2 SLOAD DUP2 PUSH20 0xFFFFFFFFFFFFFFFFFFFFFFFFFFFFFFFFFFFFFFFF MUL NOT AND SWAP1 DUP4 PUSH20 0xFFFFFFFFFFFFFFFFFFFFFFFFFFFFFFFFFFFFFFFF AND MUL OR SWAP1 SSTORE POP DUP3 PUSH20 0xFFFFFFFFFFFFFFFFFFFFFFFFFFFFFFFFFFFFFFFF AND DUP2 PUSH20 0xFFFFFFFFFFFFFFFFFFFFFFFFFFFFFFFFFFFFFFFF AND PUSH32 0x8BE0079C531659141344CD1FD0A4F28419497F9722A3DAAFE3B4186F6B6457E0 PUSH1 0x40 MLOAD PUSH1 0x40 MLOAD DUP1 SWAP2 SUB SWAP1 LOG3 POP POP POP JUMP JUMPDEST PUSH1 0x0 DUP1 PUSH2 0x15D9 PUSH2 0x1C3C JUMP JUMPDEST SWAP1 POP DUP1 PUSH1 0x0 ADD PUSH1 0x0 DUP5 PUSH20 0xFFFFFFFFFFFFFFFFFFFFFFFFFFFFFFFFFFFFFFFF AND PUSH20 0xFFFFFFFFFFFFFFFFFFFFFFFFFFFFFFFFFFFFFFFF AND DUP2 MSTORE PUSH1 0x20 ADD SWAP1 DUP2 MSTORE PUSH1 0x20 ADD PUSH1 0x0 KECCAK256 SLOAD SWAP2 POP POP SWAP2 SWAP1 POP JUMP JUMPDEST PUSH2 0x162D PUSH2 0x1C64 JUMP JUMPDEST PUSH1 0x0 PUSH2 0x1637 PUSH2 0x14CA JUMP JUMPDEST SWAP1 POP PUSH1 0x1 DUP2 PUSH1 0x0 ADD PUSH1 0x0 PUSH2 0x100 EXP DUP2 SLOAD DUP2 PUSH1 0xFF MUL NOT AND SWAP1 DUP4 ISZERO ISZERO MUL OR SWAP1 SSTORE POP PUSH32 0x62E78CEA01BEE320CD4E420270B5EA74000D11B0C9F74754EBDBFC544B05A258 PUSH2 0x167F PUSH2 0x111C JUMP JUMPDEST PUSH1 0x40 MLOAD PUSH2 0x168C SWAP2 SWAP1 PUSH2 0x29F8 JUMP JUMPDEST PUSH1 0x40 MLOAD DUP1 SWAP2 SUB SWAP1 LOG1 POP JUMP JUMPDEST PUSH1 0x0 PUSH32 0xA16A46D94261C7517CC8FF89F61C0CE93598E3C849801011DEE649A6A557D100 SWAP1 POP SWAP1 JUMP JUMPDEST PUSH1 0x60 PUSH1 0x0 PUSH2 0x16CB PUSH2 0x1697 JUMP JUMPDEST SWAP1 POP DUP1 PUSH1 0x2 ADD DUP1 SLOAD PUSH2 0x16DC SWAP1 PUSH2 0x2B7C JUMP JUMPDEST DUP1 PUSH1 0x1F ADD PUSH1 0x20 DUP1 SWAP2 DIV MUL PUSH1 0x20 ADD PUSH1 0x40 MLOAD SWAP1 DUP2 ADD PUSH1 0x40 MSTORE DUP1 SWAP3 SWAP2 SWAP1 DUP2 DUP2 MSTORE PUSH1 0x20 ADD DUP3 DUP1 SLOAD PUSH2 0x1708 SWAP1 PUSH2 0x2B7C JUMP JUMPDEST DUP1 ISZERO PUSH2 0x1755 JUMPI DUP1 PUSH1 0x1F LT PUSH2 0x172A JUMPI PUSH2 0x100 DUP1 DUP4 SLOAD DIV MUL DUP4 MSTORE SWAP2 PUSH1 0x20 ADD SWAP2 PUSH2 0x1755 JUMP JUMPDEST DUP3 ADD SWAP2 SWAP1 PUSH1 0x0 MSTORE PUSH1 0x20 PUSH1 0x0 KECCAK256 SWAP1 JUMPDEST DUP2 SLOAD DUP2 MSTORE SWAP1 PUSH1 0x1 ADD SWAP1 PUSH1 0x20 ADD DUP1 DUP4 GT PUSH2 0x1738 JUMPI DUP3 SWAP1 SUB PUSH1 0x1F AND DUP3 ADD SWAP2 JUMPDEST POP POP POP POP POP SWAP2 POP POP SWAP1 JUMP JUMPDEST PUSH1 0x60 PUSH1 0x0 PUSH2 0x176C PUSH2 0x1697 JUMP JUMPDEST SWAP1 POP DUP1 PUSH1 0x3 ADD DUP1 SLOAD PUSH2 0x177D SWAP1 PUSH2 0x2B7C JUMP JUMPDEST DUP1 PUSH1 0x1F ADD PUSH1 0x20 DUP1 SWAP2 DIV MUL PUSH1 0x20 ADD PUSH1 0x40 MLOAD SWAP1 DUP2 ADD PUSH1 0x40 MSTORE DUP1 SWAP3 SWAP2 SWAP1 DUP2 DUP2 MSTORE PUSH1 0x20 ADD DUP3 DUP1 SLOAD PUSH2 0x17A9 SWAP1 PUSH2 0x2B7C JUMP JUMPDEST DUP1 ISZERO PUSH2 0x17F6 JUMPI DUP1 PUSH1 0x1F LT PUSH2 0x17CB JUMPI PUSH2 0x100 DUP1 DUP4 SLOAD DIV MUL DUP4 MSTORE SWAP2 PUSH1 0x20 ADD SWAP2 PUSH2 0x17F6 JUMP JUMPDEST DUP3 ADD SWAP2 SWAP1 PUSH1 0x0 MSTORE PUSH1 0x20 PUSH1 0x0 KECCAK256 SWAP1 JUMPDEST DUP2 SLOAD DUP2 MSTORE SWAP1 PUSH1 0x1 ADD SWAP1 PUSH1 0x20 ADD DUP1 DUP4 GT PUSH2 0x17D9 JUMPI DUP3 SWAP1 SUB PUSH1 0x1F AND DUP3 ADD SWAP2 JUMPDEST POP POP POP POP POP SWAP2 POP POP SWAP1 JUMP JUMPDEST PUSH1 0x0 PUSH32 0x9016D09D72D40FDAE2FD8CEAC6B6234C7706214FD39C1CD1E609A0528C199300 SWAP1 POP SWAP1 JUMP JUMPDEST PUSH1 0x0 PUSH32 0xF0C57E16840DF040F15088DC2F81FE391C3923BEC73E23A9662EFC9C229C6A00 SWAP1 POP SWAP1 JUMP JUMPDEST PUSH2 0x1859 PUSH2 0x1CA5 JUMP JUMPDEST PUSH2 0x1863 DUP3 DUP3 PUSH2 0x1CE5 JUMP JUMPDEST POP POP JUMP JUMPDEST PUSH2 0x186F PUSH2 0x1CA5 JUMP JUMPDEST JUMP JUMPDEST PUSH2 0x1879 PUSH2 0x1CA5 JUMP JUMPDEST PUSH2 0x1881 PUSH2 0x1D22 JUMP JUMPDEST JUMP JUMPDEST PUSH2 0x188B PUSH2 0x1CA5 JUMP JUMPDEST PUSH2 0x1894 DUP2 PUSH2 0x1D56 JUMP JUMPDEST POP JUMP JUMPDEST PUSH2 0x189F PUSH2 0x1CA5 JUMP JUMPDEST PUSH2 0x18DE DUP2 PUSH1 0x40 MLOAD DUP1 PUSH1 0x40 ADD PUSH1 0x40 MSTORE DUP1 PUSH1 0x1 DUP2 MSTORE PUSH1 0x20 ADD PUSH32 0x3100000000000000000000000000000000000000000000000000000000000000 DUP2 MSTORE POP PUSH2 0x1DDC JUMP JUMPDEST POP JUMP JUMPDEST PUSH2 0x18E9 PUSH2 0x1CA5 JUMP JUMPDEST JUMP JUMPDEST PUSH1 0x0 DUP1 PUSH2 0x18F6 PUSH2 0x1C3C JUMP JUMPDEST SWAP1 POP DUP1 PUSH1 0x0 ADD PUSH1 0x0 DUP5 PUSH20 0xFFFFFFFFFFFFFFFFFFFFFFFFFFFFFFFFFFFFFFFF AND PUSH20 0xFFFFFFFFFFFFFFFFFFFFFFFFFFFFFFFFFFFFFFFF AND DUP2 MSTORE PUSH1 0x20 ADD SWAP1 DUP2 MSTORE PUSH1 0x20 ADD PUSH1 0x0 KECCAK256 PUSH1 0x0 DUP2 SLOAD DUP1 SWAP3 SWAP2 SWAP1 PUSH1 0x1 ADD SWAP2 SWAP1 POP SSTORE SWAP2 POP POP SWAP2 SWAP1 POP JUMP JUMPDEST PUSH1 0x0 PUSH2 0x1963 PUSH2 0x195D PUSH2 0x12BE JUMP JUMPDEST DUP4 PUSH2 0x1E31 JUMP JUMPDEST SWAP1 POP SWAP2 SWAP1 POP JUMP JUMPDEST PUSH1 0x0 DUP1 PUSH1 0x0 DUP1 PUSH2 0x197C DUP9 DUP9 DUP9 DUP9 PUSH2 0x1E72 JUMP JUMPDEST SWAP3 POP SWAP3 POP SWAP3 POP PUSH2 0x198C DUP3 DUP3 PUSH2 0x1F66 JUMP JUMPDEST DUP3 SWAP4 POP POP POP POP SWAP5 SWAP4 POP POP POP POP JUMP JUMPDEST PUSH1 0x0 SWAP3 SWAP2 POP POP JUMP JUMPDEST PUSH1 0x0 PUSH2 0x19AC PUSH2 0x10F4 JUMP JUMPDEST SWAP1 POP PUSH1 0x0 PUSH20 0xFFFFFFFFFFFFFFFFFFFFFFFFFFFFFFFFFFFFFFFF AND DUP6 PUSH20 0xFFFFFFFFFFFFFFFFFFFFFFFFFFFFFFFFFFFFFFFF AND SUB PUSH2 0x1A20 JUMPI PUSH1 0x0 PUSH1 0x40 MLOAD PUSH32 0xE602DF0500000000000000000000000000000000000000000000000000000000 DUP2 MSTORE PUSH1 0x4 ADD PUSH2 0x1A17 SWAP2 SWAP1 PUSH2 0x29F8 JUMP JUMPDEST PUSH1 0x40 MLOAD DUP1 SWAP2 SUB SWAP1 REVERT JUMPDEST PUSH1 0x0 PUSH20 0xFFFFFFFFFFFFFFFFFFFFFFFFFFFFFFFFFFFFFFFF AND DUP5 PUSH20 0xFFFFFFFFFFFFFFFFFFFFFFFFFFFFFFFFFFFFFFFF AND SUB PUSH2 0x1A92 JUMPI PUSH1 0x0 PUSH1 0x40 MLOAD PUSH32 0x94280D6200000000000000000000000000000000000000000000000000000000 DUP2 MSTORE PUSH1 0x4 ADD PUSH2 0x1A89 SWAP2 SWAP1 PUSH2 0x29F8 JUMP JUMPDEST PUSH1 0x40 MLOAD DUP1 SWAP2 SUB SWAP1 REVERT JUMPDEST DUP3 DUP2 PUSH1 0x1 ADD PUSH1 0x0 DUP8 PUSH20 0xFFFFFFFFFFFFFFFFFFFFFFFFFFFFFFFFFFFFFFFF AND PUSH20 0xFFFFFFFFFFFFFFFFFFFFFFFFFFFFFFFFFFFFFFFF AND DUP2 MSTORE PUSH1 0x20 ADD SWAP1 DUP2 MSTORE PUSH1 0x20 ADD PUSH1 0x0 KECCAK256 PUSH1 0x0 DUP7 PUSH20 0xFFFFFFFFFFFFFFFFFFFFFFFFFFFFFFFFFFFFFFFF AND PUSH20 0xFFFFFFFFFFFFFFFFFFFFFFFFFFFFFFFFFFFFFFFF AND DUP2 MSTORE PUSH1 0x20 ADD SWAP1 DUP2 MSTORE PUSH1 0x20 ADD PUSH1 0x0 KECCAK256 DUP2 SWAP1 SSTORE POP DUP2 ISZERO PUSH2 0x1B81 JUMPI DUP4 PUSH20 0xFFFFFFFFFFFFFFFFFFFFFFFFFFFFFFFFFFFFFFFF AND DUP6 PUSH20 0xFFFFFFFFFFFFFFFFFFFFFFFFFFFFFFFFFFFFFFFF AND PUSH32 0x8C5BE1E5EBEC7D5BD14F71427D1E84F3DD0314C0F7B2291E5B200AC8C7C3B925 DUP6 PUSH1 0x40 MLOAD PUSH2 0x1B78 SWAP2 SWAP1 PUSH2 0x260E JUMP JUMPDEST PUSH1 0x40 MLOAD DUP1 SWAP2 SUB SWAP1 LOG3 JUMPDEST POP POP POP POP POP JUMP JUMPDEST PUSH2 0x1B93 DUP4 DUP4 DUP4 PUSH2 0x20CA JUMP JUMPDEST POP POP POP JUMP JUMPDEST PUSH1 0x0 PUSH32 0x8B73C3C69BB8FE3D512ECC4CF759CC79239F7B179B0FFACAA9A75D522B39400F PUSH2 0x1BC3 PUSH2 0x20E2 JUMP JUMPDEST PUSH2 0x1BCB PUSH2 0x215E JUMP JUMPDEST CHAINID ADDRESS PUSH1 0x40 MLOAD PUSH1 0x20 ADD PUSH2 0x1BE1 SWAP6 SWAP5 SWAP4 SWAP3 SWAP2 SWAP1 PUSH2 0x2EFF JUMP JUMPDEST PUSH1 0x40 MLOAD PUSH1 0x20 DUP2 DUP4 SUB SUB DUP2 MSTORE SWAP1 PUSH1 0x40 MSTORE DUP1 MLOAD SWAP1 PUSH1 0x20 ADD KECCAK256 SWAP1 POP SWAP1 JUMP JUMPDEST PUSH2 0x1C04 PUSH2 0x65E JUMP JUMPDEST PUSH2 0x1C3A JUMPI PUSH1 0x40 MLOAD PUSH32 0x8DFC202B00000000000000000000000000000000000000000000000000000000 DUP2 MSTORE PUSH1 0x4 ADD PUSH1 0x40 MLOAD DUP1 SWAP2 SUB SWAP1 REVERT JUMPDEST JUMP JUMPDEST PUSH1 0x0 PUSH32 0x5AB42CED628888259C08AC98DB1EB0CF702FC1501344311D8B100CD1BFE4BB00 SWAP1 POP SWAP1 JUMP JUMPDEST PUSH2 0x1C6C PUSH2 0x65E JUMP JUMPDEST ISZERO PUSH2 0x1CA3 JUMPI PUSH1 0x40 MLOAD PUSH32 0xD93C066500000000000000000000000000000000000000000000000000000000 DUP2 MSTORE PUSH1 0x4 ADD PUSH1 0x40 MLOAD DUP1 SWAP2 SUB SWAP1 REVERT JUMPDEST JUMP JUMPDEST PUSH2 0x1CAD PUSH2 0x21DA JUMP JUMPDEST PUSH2 0x1CE3 JUMPI PUSH1 0x40 MLOAD PUSH32 0xD7E6BCF800000000000000000000000000000000000000000000000000000000 DUP2 MSTORE PUSH1 0x4 ADD PUSH1 0x40 MLOAD DUP1 SWAP2 SUB SWAP1 REVERT JUMPDEST JUMP JUMPDEST PUSH2 0x1CED PUSH2 0x1CA5 JUMP JUMPDEST PUSH1 0x0 PUSH2 0x1CF7 PUSH2 0x10F4 JUMP JUMPDEST SWAP1 POP DUP3 DUP2 PUSH1 0x3 ADD SWAP1 DUP2 PUSH2 0x1D0A SWAP2 SWAP1 PUSH2 0x30F4 JUMP JUMPDEST POP DUP2 DUP2 PUSH1 0x4 ADD SWAP1 DUP2 PUSH2 0x1D1C SWAP2 SWAP1 PUSH2 0x30F4 JUMP JUMPDEST POP POP POP POP JUMP JUMPDEST PUSH2 0x1D2A PUSH2 0x1CA5 JUMP JUMPDEST PUSH1 0x0 PUSH2 0x1D34 PUSH2 0x14CA JUMP JUMPDEST SWAP1 POP PUSH1 0x0 DUP2 PUSH1 0x0 ADD PUSH1 0x0 PUSH2 0x100 EXP DUP2 SLOAD DUP2 PUSH1 0xFF MUL NOT AND SWAP1 DUP4 ISZERO ISZERO MUL OR SWAP1 SSTORE POP POP JUMP JUMPDEST PUSH2 0x1D5E PUSH2 0x1CA5 JUMP JUMPDEST PUSH1 0x0 PUSH20 0xFFFFFFFFFFFFFFFFFFFFFFFFFFFFFFFFFFFFFFFF AND DUP2 PUSH20 0xFFFFFFFFFFFFFFFFFFFFFFFFFFFFFFFFFFFFFFFF AND SUB PUSH2 0x1DD0 JUMPI PUSH1 0x0 PUSH1 0x40 MLOAD PUSH32 0x1E4FBDF700000000000000000000000000000000000000000000000000000000 DUP2 MSTORE PUSH1 0x4 ADD PUSH2 0x1DC7 SWAP2 SWAP1 PUSH2 0x29F8 JUMP JUMPDEST PUSH1 0x40 MLOAD DUP1 SWAP2 SUB SWAP1 REVERT JUMPDEST PUSH2 0x1DD9 DUP2 PUSH2 0x14F7 JUMP JUMPDEST POP JUMP JUMPDEST PUSH2 0x1DE4 PUSH2 0x1CA5 JUMP JUMPDEST PUSH1 0x0 PUSH2 0x1DEE PUSH2 0x1697 JUMP JUMPDEST SWAP1 POP DUP3 DUP2 PUSH1 0x2 ADD SWAP1 DUP2 PUSH2 0x1E01 SWAP2 SWAP1 PUSH2 0x30F4 JUMP JUMPDEST POP DUP2 DUP2 PUSH1 0x3 ADD SWAP1 DUP2 PUSH2 0x1E13 SWAP2 SWAP1 PUSH2 0x30F4 JUMP JUMPDEST POP PUSH1 0x0 DUP1 SHL DUP2 PUSH1 0x0 ADD DUP2 SWAP1 SSTORE POP PUSH1 0x0 DUP1 SHL DUP2 PUSH1 0x1 ADD DUP2 SWAP1 SSTORE POP POP POP POP JUMP JUMPDEST PUSH1 0x0 PUSH1 0x40 MLOAD PUSH32 0x1901000000000000000000000000000000000000000000000000000000000000 DUP2 MSTORE DUP4 PUSH1 0x2 DUP3 ADD MSTORE DUP3 PUSH1 0x22 DUP3 ADD MSTORE PUSH1 0x42 DUP2 KECCAK256 SWAP2 POP POP SWAP3 SWAP2 POP POP JUMP JUMPDEST PUSH1 0x0 DUP1 PUSH1 0x0 PUSH32 0x7FFFFFFFFFFFFFFFFFFFFFFFFFFFFFFF5D576E7357A4501DDFE92F46681B20A0 DUP5 PUSH1 0x0 SHR GT ISZERO PUSH2 0x1EB2 JUMPI PUSH1 0x0 PUSH1 0x3 DUP6 SWAP3 POP SWAP3 POP SWAP3 POP PUSH2 0x1F5C JUMP JUMPDEST PUSH1 0x0 PUSH1 0x1 DUP9 DUP9 DUP9 DUP9 PUSH1 0x40 MLOAD PUSH1 0x0 DUP2 MSTORE PUSH1 0x20 ADD PUSH1 0x40 MSTORE PUSH1 0x40 MLOAD PUSH2 0x1ED7 SWAP5 SWAP4 SWAP3 SWAP2 SWAP1 PUSH2 0x31C6 JUMP JUMPDEST PUSH1 0x20 PUSH1 0x40 MLOAD PUSH1 0x20 DUP2 SUB SWAP1 DUP1 DUP5 SUB SWAP1 DUP6 GAS STATICCALL ISZERO DUP1 ISZERO PUSH2 0x1EF9 JUMPI RETURNDATASIZE PUSH1 0x0 DUP1 RETURNDATACOPY RETURNDATASIZE PUSH1 0x0 REVERT JUMPDEST POP POP POP PUSH1 0x20 PUSH1 0x40 MLOAD SUB MLOAD SWAP1 POP PUSH1 0x0 PUSH20 0xFFFFFFFFFFFFFFFFFFFFFFFFFFFFFFFFFFFFFFFF AND DUP2 PUSH20 0xFFFFFFFFFFFFFFFFFFFFFFFFFFFFFFFFFFFFFFFF AND SUB PUSH2 0x1F4D JUMPI PUSH1 0x0 PUSH1 0x1 PUSH1 0x0 DUP1 SHL SWAP4 POP SWAP4 POP SWAP4 POP POP PUSH2 0x1F5C JUMP JUMPDEST DUP1 PUSH1 0x0 DUP1 PUSH1 0x0 SHL SWAP4 POP SWAP4 POP SWAP4 POP POP JUMPDEST SWAP5 POP SWAP5 POP SWAP5 SWAP2 POP POP JUMP JUMPDEST PUSH1 0x0 PUSH1 0x3 DUP2 GT ISZERO PUSH2 0x1F7A JUMPI PUSH2 0x1F79 PUSH2 0x320B JUMP JUMPDEST JUMPDEST DUP3 PUSH1 0x3 DUP2 GT ISZERO PUSH2 0x1F8D JUMPI PUSH2 0x1F8C PUSH2 0x320B JUMP JUMPDEST JUMPDEST SUB ISZERO PUSH2 0x20C6 JUMPI PUSH1 0x1 PUSH1 0x3 DUP2 GT ISZERO PUSH2 0x1FA7 JUMPI PUSH2 0x1FA6 PUSH2 0x320B JUMP JUMPDEST JUMPDEST DUP3 PUSH1 0x3 DUP2 GT ISZERO PUSH2 0x1FBA JUMPI PUSH2 0x1FB9 PUSH2 0x320B JUMP JUMPDEST JUMPDEST SUB PUSH2 0x1FF1 JUMPI PUSH1 0x40 MLOAD PUSH32 0xF645EEDF00000000000000000000000000000000000000000000000000000000 DUP2 MSTORE PUSH1 0x4 ADD PUSH1 0x40 MLOAD DUP1 SWAP2 SUB SWAP1 REVERT JUMPDEST PUSH1 0x2 PUSH1 0x3 DUP2 GT ISZERO PUSH2 0x2005 JUMPI PUSH2 0x2004 PUSH2 0x320B JUMP JUMPDEST JUMPDEST DUP3 PUSH1 0x3 DUP2 GT ISZERO PUSH2 0x2018 JUMPI PUSH2 0x2017 PUSH2 0x320B JUMP JUMPDEST JUMPDEST SUB PUSH2 0x205D JUMPI DUP1 PUSH1 0x0 SHR PUSH1 0x40 MLOAD PUSH32 0xFCE698F700000000000000000000000000000000000000000000000000000000 DUP2 MSTORE PUSH1 0x4 ADD PUSH2 0x2054 SWAP2 SWAP1 PUSH2 0x260E JUMP JUMPDEST PUSH1 0x40 MLOAD DUP1 SWAP2 SUB SWAP1 REVERT JUMPDEST PUSH1 0x3 DUP1 DUP2 GT ISZERO PUSH2 0x2070 JUMPI PUSH2 0x206F PUSH2 0x320B JUMP JUMPDEST JUMPDEST DUP3 PUSH1 0x3 DUP2 GT ISZERO PUSH2 0x2083 JUMPI PUSH2 0x2082 PUSH2 0x320B JUMP JUMPDEST JUMPDEST SUB PUSH2 0x20C5 JUMPI DUP1 PUSH1 0x40 MLOAD PUSH32 0xD78BCE0C00000000000000000000000000000000000000000000000000000000 DUP2 MSTORE PUSH1 0x4 ADD PUSH2 0x20BC SWAP2 SWAP1 PUSH2 0x26CC JUMP JUMPDEST PUSH1 0x40 MLOAD DUP1 SWAP2 SUB SWAP1 REVERT JUMPDEST JUMPDEST POP POP JUMP JUMPDEST PUSH2 0x20D2 PUSH2 0x1C64 JUMP JUMPDEST PUSH2 0x20DD DUP4 DUP4 DUP4 PUSH2 0x21FA JUMP JUMPDEST POP POP POP JUMP JUMPDEST PUSH1 0x0 DUP1 PUSH2 0x20ED PUSH2 0x1697 JUMP JUMPDEST SWAP1 POP PUSH1 0x0 PUSH2 0x20F9 PUSH2 0x16BF JUMP JUMPDEST SWAP1 POP PUSH1 0x0 DUP2 MLOAD GT ISZERO PUSH2 0x2116 JUMPI DUP1 DUP1 MLOAD SWAP1 PUSH1 0x20 ADD KECCAK256 SWAP3 POP POP POP PUSH2 0x215B JUMP JUMPDEST PUSH1 0x0 DUP3 PUSH1 0x0 ADD SLOAD SWAP1 POP PUSH1 0x0 DUP1 SHL DUP2 EQ PUSH2 0x2134 JUMPI DUP1 SWAP4 POP POP POP POP PUSH2 0x215B JUMP JUMPDEST PUSH32 0xC5D2460186F7233C927E7DB2DCC703C0E500B653CA82273B7BFAD8045D85A470 SWAP4 POP POP POP POP JUMPDEST SWAP1 JUMP JUMPDEST PUSH1 0x0 DUP1 PUSH2 0x2169 PUSH2 0x1697 JUMP JUMPDEST SWAP1 POP PUSH1 0x0 PUSH2 0x2175 PUSH2 0x1760 JUMP JUMPDEST SWAP1 POP PUSH1 0x0 DUP2 MLOAD GT ISZERO PUSH2 0x2192 JUMPI DUP1 DUP1 MLOAD SWAP1 PUSH1 0x20 ADD KECCAK256 SWAP3 POP POP POP PUSH2 0x21D7 JUMP JUMPDEST PUSH1 0x0 DUP3 PUSH1 0x1 ADD SLOAD SWAP1 POP PUSH1 0x0 DUP1 SHL DUP2 EQ PUSH2 0x21B0 JUMPI DUP1 SWAP4 POP POP POP POP PUSH2 0x21D7 JUMP JUMPDEST PUSH32 0xC5D2460186F7233C927E7DB2DCC703C0E500B653CA82273B7BFAD8045D85A470 SWAP4 POP POP POP POP JUMPDEST SWAP1 JUMP JUMPDEST PUSH1 0x0 PUSH2 0x21E4 PUSH2 0x1829 JUMP JUMPDEST PUSH1 0x0 ADD PUSH1 0x8 SWAP1 SLOAD SWAP1 PUSH2 0x100 EXP SWAP1 DIV PUSH1 0xFF AND SWAP1 POP SWAP1 JUMP JUMPDEST PUSH1 0x0 PUSH2 0x2204 PUSH2 0x10F4 JUMP JUMPDEST SWAP1 POP PUSH1 0x0 PUSH20 0xFFFFFFFFFFFFFFFFFFFFFFFFFFFFFFFFFFFFFFFF AND DUP5 PUSH20 0xFFFFFFFFFFFFFFFFFFFFFFFFFFFFFFFFFFFFFFFF AND SUB PUSH2 0x225A JUMPI DUP2 DUP2 PUSH1 0x2 ADD PUSH1 0x0 DUP3 DUP3 SLOAD PUSH2 0x224E SWAP2 SWAP1 PUSH2 0x2CC7 JUMP JUMPDEST SWAP3 POP POP DUP2 SWAP1 SSTORE POP PUSH2 0x2333 JUMP JUMPDEST PUSH1 0x0 DUP2 PUSH1 0x0 ADD PUSH1 0x0 DUP7 PUSH20 0xFFFFFFFFFFFFFFFFFFFFFFFFFFFFFFFFFFFFFFFF AND PUSH20 0xFFFFFFFFFFFFFFFFFFFFFFFFFFFFFFFFFFFFFFFF AND DUP2 MSTORE PUSH1 0x20 ADD SWAP1 DUP2 MSTORE PUSH1 0x20 ADD PUSH1 0x0 KECCAK256 SLOAD SWAP1 POP DUP3 DUP2 LT ISZERO PUSH2 0x22E9 JUMPI DUP5 DUP2 DUP5 PUSH1 0x40 MLOAD PUSH32 0xE450D38C00000000000000000000000000000000000000000000000000000000 DUP2 MSTORE PUSH1 0x4 ADD PUSH2 0x22E0 SWAP4 SWAP3 SWAP2 SWAP1 PUSH2 0x2EC8 JUMP JUMPDEST PUSH1 0x40 MLOAD DUP1 SWAP2 SUB SWAP1 REVERT JUMPDEST DUP3 DUP2 SUB DUP3 PUSH1 0x0 ADD PUSH1 0x0 DUP8 PUSH20 0xFFFFFFFFFFFFFFFFFFFFFFFFFFFFFFFFFFFFFFFF AND PUSH20 0xFFFFFFFFFFFFFFFFFFFFFFFFFFFFFFFFFFFFFFFF AND DUP2 MSTORE PUSH1 0x20 ADD SWAP1 DUP2 MSTORE PUSH1 0x20 ADD PUSH1 0x0 KECCAK256 DUP2 SWAP1 SSTORE POP POP JUMPDEST PUSH1 0x0 PUSH20 0xFFFFFFFFFFFFFFFFFFFFFFFFFFFFFFFFFFFFFFFF AND DUP4 PUSH20 0xFFFFFFFFFFFFFFFFFFFFFFFFFFFFFFFFFFFFFFFF AND SUB PUSH2 0x237E JUMPI DUP2 DUP2 PUSH1 0x2 ADD PUSH1 0x0 DUP3 DUP3 SLOAD SUB SWAP3 POP POP DUP2 SWAP1 SSTORE POP PUSH2 0x23CE JUMP JUMPDEST DUP2 DUP2 PUSH1 0x0 ADD PUSH1 0x0 DUP6 PUSH20 0xFFFFFFFFFFFFFFFFFFFFFFFFFFFFFFFFFFFFFFFF AND PUSH20 0xFFFFFFFFFFFFFFFFFFFFFFFFFFFFFFFFFFFFFFFF AND DUP2 MSTORE PUSH1 0x20 ADD SWAP1 DUP2 MSTORE PUSH1 0x20 ADD PUSH1 0x0 KECCAK256 PUSH1 0x0 DUP3 DUP3 SLOAD ADD SWAP3 POP POP DUP2 SWAP1 SSTORE POP JUMPDEST DUP3 PUSH20 0xFFFFFFFFFFFFFFFFFFFFFFFFFFFFFFFFFFFFFFFF AND DUP5 PUSH20 0xFFFFFFFFFFFFFFFFFFFFFFFFFFFFFFFFFFFFFFFF AND PUSH32 0xDDF252AD1BE2C89B69C2B068FC378DAA952BA7F163C4A11628F55A4DF523B3EF DUP5 PUSH1 0x40 MLOAD PUSH2 0x242B SWAP2 SWAP1 PUSH2 0x260E JUMP JUMPDEST PUSH1 0x40 MLOAD DUP1 SWAP2 SUB SWAP1 LOG3 POP POP POP POP JUMP JUMPDEST PUSH1 0x0 DUP2 MLOAD SWAP1 POP SWAP2 SWAP1 POP JUMP JUMPDEST PUSH1 0x0 DUP3 DUP3 MSTORE PUSH1 0x20 DUP3 ADD SWAP1 POP SWAP3 SWAP2 POP POP JUMP JUMPDEST PUSH1 0x0 JUMPDEST DUP4 DUP2 LT ISZERO PUSH2 0x2473 JUMPI DUP1 DUP3 ADD MLOAD DUP2 DUP5 ADD MSTORE PUSH1 0x20 DUP2 ADD SWAP1 POP PUSH2 0x2458 JUMP JUMPDEST PUSH1 0x0 DUP5 DUP5 ADD MSTORE POP POP POP POP JUMP JUMPDEST PUSH1 0x0 PUSH1 0x1F NOT PUSH1 0x1F DUP4 ADD AND SWAP1 POP SWAP2 SWAP1 POP JUMP JUMPDEST PUSH1 0x0 PUSH2 0x249B DUP3 PUSH2 0x2439 JUMP JUMPDEST PUSH2 0x24A5 DUP2 DUP6 PUSH2 0x2444 JUMP JUMPDEST SWAP4 POP PUSH2 0x24B5 DUP2 DUP6 PUSH1 0x20 DUP7 ADD PUSH2 0x2455 JUMP JUMPDEST PUSH2 0x24BE DUP2 PUSH2 0x247F JUMP JUMPDEST DUP5 ADD SWAP2 POP POP SWAP3 SWAP2 POP POP JUMP JUMPDEST PUSH1 0x0 PUSH1 0x20 DUP3 ADD SWAP1 POP DUP2 DUP2 SUB PUSH1 0x0 DUP4 ADD MSTORE PUSH2 0x24E3 DUP2 DUP5 PUSH2 0x2490 JUMP JUMPDEST SWAP1 POP SWAP3 SWAP2 POP POP JUMP JUMPDEST PUSH1 0x0 DUP1 REVERT JUMPDEST PUSH1 0x0 DUP1 REVERT JUMPDEST PUSH1 0x0 PUSH20 0xFFFFFFFFFFFFFFFFFFFFFFFFFFFFFFFFFFFFFFFF DUP3 AND SWAP1 POP SWAP2 SWAP1 POP JUMP JUMPDEST PUSH1 0x0 PUSH2 0x2520 DUP3 PUSH2 0x24F5 JUMP JUMPDEST SWAP1 POP SWAP2 SWAP1 POP JUMP JUMPDEST PUSH2 0x2530 DUP2 PUSH2 0x2515 JUMP JUMPDEST DUP2 EQ PUSH2 0x253B JUMPI PUSH1 0x0 DUP1 REVERT JUMPDEST POP JUMP JUMPDEST PUSH1 0x0 DUP2 CALLDATALOAD SWAP1 POP PUSH2 0x254D DUP2 PUSH2 0x2527 JUMP JUMPDEST SWAP3 SWAP2 POP POP JUMP JUMPDEST PUSH1 0x0 DUP2 SWAP1 POP SWAP2 SWAP1 POP JUMP JUMPDEST PUSH2 0x2566 DUP2 PUSH2 0x2553 JUMP JUMPDEST DUP2 EQ PUSH2 0x2571 JUMPI PUSH1 0x0 DUP1 REVERT JUMPDEST POP JUMP JUMPDEST PUSH1 0x0 DUP2 CALLDATALOAD SWAP1 POP PUSH2 0x2583 DUP2 PUSH2 0x255D JUMP JUMPDEST SWAP3 SWAP2 POP POP JUMP JUMPDEST PUSH1 0x0 DUP1 PUSH1 0x40 DUP4 DUP6 SUB SLT ISZERO PUSH2 0x25A0 JUMPI PUSH2 0x259F PUSH2 0x24EB JUMP JUMPDEST JUMPDEST PUSH1 0x0 PUSH2 0x25AE DUP6 DUP3 DUP7 ADD PUSH2 0x253E JUMP JUMPDEST SWAP3 POP POP PUSH1 0x20 PUSH2 0x25BF DUP6 DUP3 DUP7 ADD PUSH2 0x2574 JUMP JUMPDEST SWAP2 POP POP SWAP3 POP SWAP3 SWAP1 POP JUMP JUMPDEST PUSH1 0x0 DUP2 ISZERO ISZERO SWAP1 POP SWAP2 SWAP1 POP JUMP JUMPDEST PUSH2 0x25DE DUP2 PUSH2 0x25C9 JUMP JUMPDEST DUP3 MSTORE POP POP JUMP JUMPDEST PUSH1 0x0 PUSH1 0x20 DUP3 ADD SWAP1 POP PUSH2 0x25F9 PUSH1 0x0 DUP4 ADD DUP5 PUSH2 0x25D5 JUMP JUMPDEST SWAP3 SWAP2 POP POP JUMP JUMPDEST PUSH2 0x2608 DUP2 PUSH2 0x2553 JUMP JUMPDEST DUP3 MSTORE POP POP JUMP JUMPDEST PUSH1 0x0 PUSH1 0x20 DUP3 ADD SWAP1 POP PUSH2 0x2623 PUSH1 0x0 DUP4 ADD DUP5 PUSH2 0x25FF JUMP JUMPDEST SWAP3 SWAP2 POP POP JUMP JUMPDEST PUSH1 0x0 DUP1 PUSH1 0x0 PUSH1 0x60 DUP5 DUP7 SUB SLT ISZERO PUSH2 0x2642 JUMPI PUSH2 0x2641 PUSH2 0x24EB JUMP JUMPDEST JUMPDEST PUSH1 0x0 PUSH2 0x2650 DUP7 DUP3 DUP8 ADD PUSH2 0x253E JUMP JUMPDEST SWAP4 POP POP PUSH1 0x20 PUSH2 0x2661 DUP7 DUP3 DUP8 ADD PUSH2 0x253E JUMP JUMPDEST SWAP3 POP POP PUSH1 0x40 PUSH2 0x2672 DUP7 DUP3 DUP8 ADD PUSH2 0x2574 JUMP JUMPDEST SWAP2 POP POP SWAP3 POP SWAP3 POP SWAP3 JUMP JUMPDEST PUSH1 0x0 PUSH1 0xFF DUP3 AND SWAP1 POP SWAP2 SWAP1 POP JUMP JUMPDEST PUSH2 0x2692 DUP2 PUSH2 0x267C JUMP JUMPDEST DUP3 MSTORE POP POP JUMP JUMPDEST PUSH1 0x0 PUSH1 0x20 DUP3 ADD SWAP1 POP PUSH2 0x26AD PUSH1 0x0 DUP4 ADD DUP5 PUSH2 0x2689 JUMP JUMPDEST SWAP3 SWAP2 POP POP JUMP JUMPDEST PUSH1 0x0 DUP2 SWAP1 POP SWAP2 SWAP1 POP JUMP JUMPDEST PUSH2 0x26C6 DUP2 PUSH2 0x26B3 JUMP JUMPDEST DUP3 MSTORE POP POP JUMP JUMPDEST PUSH1 0x0 PUSH1 0x20 DUP3 ADD SWAP1 POP PUSH2 0x26E1 PUSH1 0x0 DUP4 ADD DUP5 PUSH2 0x26BD JUMP JUMPDEST SWAP3 SWAP2 POP POP JUMP JUMPDEST PUSH1 0x0 PUSH1 0x20 DUP3 DUP5 SUB SLT ISZERO PUSH2 0x26FD JUMPI PUSH2 0x26FC PUSH2 0x24EB JUMP JUMPDEST JUMPDEST PUSH1 0x0 PUSH2 0x270B DUP5 DUP3 DUP6 ADD PUSH2 0x2574 JUMP JUMPDEST SWAP2 POP POP SWAP3 SWAP2 POP POP JUMP JUMPDEST PUSH1 0x0 PUSH2 0x271F DUP3 PUSH2 0x2515 JUMP JUMPDEST SWAP1 POP SWAP2 SWAP1 POP JUMP JUMPDEST PUSH2 0x272F DUP2 PUSH2 0x2714 JUMP JUMPDEST DUP2 EQ PUSH2 0x273A JUMPI PUSH1 0x0 DUP1 REVERT JUMPDEST POP JUMP JUMPDEST PUSH1 0x0 DUP2 CALLDATALOAD SWAP1 POP PUSH2 0x274C DUP2 PUSH2 0x2726 JUMP JUMPDEST SWAP3 SWAP2 POP POP JUMP JUMPDEST PUSH1 0x0 DUP1 REVERT JUMPDEST PUSH1 0x0 DUP1 REVERT JUMPDEST PUSH1 0x0 DUP1 REVERT JUMPDEST PUSH1 0x0 DUP1 DUP4 PUSH1 0x1F DUP5 ADD SLT PUSH2 0x2777 JUMPI PUSH2 0x2776 PUSH2 0x2752 JUMP JUMPDEST JUMPDEST DUP3 CALLDATALOAD SWAP1 POP PUSH8 0xFFFFFFFFFFFFFFFF DUP2 GT ISZERO PUSH2 0x2794 JUMPI PUSH2 0x2793 PUSH2 0x2757 JUMP JUMPDEST JUMPDEST PUSH1 0x20 DUP4 ADD SWAP2 POP DUP4 PUSH1 0x1 DUP3 MUL DUP4 ADD GT ISZERO PUSH2 0x27B0 JUMPI PUSH2 0x27AF PUSH2 0x275C JUMP JUMPDEST JUMPDEST SWAP3 POP SWAP3 SWAP1 POP JUMP JUMPDEST PUSH1 0x0 DUP1 PUSH1 0x0 DUP1 PUSH1 0x0 PUSH1 0x80 DUP7 DUP9 SUB SLT ISZERO PUSH2 0x27D3 JUMPI PUSH2 0x27D2 PUSH2 0x24EB JUMP JUMPDEST JUMPDEST PUSH1 0x0 PUSH2 0x27E1 DUP9 DUP3 DUP10 ADD PUSH2 0x273D JUMP JUMPDEST SWAP6 POP POP PUSH1 0x20 PUSH2 0x27F2 DUP9 DUP3 DUP10 ADD PUSH2 0x253E JUMP JUMPDEST SWAP5 POP POP PUSH1 0x40 PUSH2 0x2803 DUP9 DUP3 DUP10 ADD PUSH2 0x2574 JUMP JUMPDEST SWAP4 POP POP PUSH1 0x60 DUP7 ADD CALLDATALOAD PUSH8 0xFFFFFFFFFFFFFFFF DUP2 GT ISZERO PUSH2 0x2824 JUMPI PUSH2 0x2823 PUSH2 0x24F0 JUMP JUMPDEST JUMPDEST PUSH2 0x2830 DUP9 DUP3 DUP10 ADD PUSH2 0x2761 JUMP JUMPDEST SWAP3 POP SWAP3 POP POP SWAP3 SWAP6 POP SWAP3 SWAP6 SWAP1 SWAP4 POP JUMP JUMPDEST PUSH1 0x0 PUSH1 0x20 DUP3 DUP5 SUB SLT ISZERO PUSH2 0x2855 JUMPI PUSH2 0x2854 PUSH2 0x24EB JUMP JUMPDEST JUMPDEST PUSH1 0x0 PUSH2 0x2863 DUP5 DUP3 DUP6 ADD PUSH2 0x253E JUMP JUMPDEST SWAP2 POP POP SWAP3 SWAP2 POP POP JUMP JUMPDEST PUSH1 0x0 PUSH32 0xFF00000000000000000000000000000000000000000000000000000000000000 DUP3 AND SWAP1 POP SWAP2 SWAP1 POP JUMP JUMPDEST PUSH2 0x28A1 DUP2 PUSH2 0x286C JUMP JUMPDEST DUP3 MSTORE POP POP JUMP JUMPDEST PUSH2 0x28B0 DUP2 PUSH2 0x2515 JUMP JUMPDEST DUP3 MSTORE POP POP JUMP JUMPDEST PUSH1 0x0 DUP2 MLOAD SWAP1 POP SWAP2 SWAP1 POP JUMP JUMPDEST PUSH1 0x0 DUP3 DUP3 MSTORE PUSH1 0x20 DUP3 ADD SWAP1 POP SWAP3 SWAP2 POP POP JUMP JUMPDEST PUSH1 0x0 DUP2 SWAP1 POP PUSH1 0x20 DUP3 ADD SWAP1 POP SWAP2 SWAP1 POP JUMP JUMPDEST PUSH2 0x28EB DUP2 PUSH2 0x2553 JUMP JUMPDEST DUP3 MSTORE POP POP JUMP JUMPDEST PUSH1 0x0 PUSH2 0x28FD DUP4 DUP4 PUSH2 0x28E2 JUMP JUMPDEST PUSH1 0x20 DUP4 ADD SWAP1 POP SWAP3 SWAP2 POP POP JUMP JUMPDEST PUSH1 0x0 PUSH1 0x20 DUP3 ADD SWAP1 POP SWAP2 SWAP1 POP JUMP JUMPDEST PUSH1 0x0 PUSH2 0x2921 DUP3 PUSH2 0x28B6 JUMP JUMPDEST PUSH2 0x292B DUP2 DUP6 PUSH2 0x28C1 JUMP JUMPDEST SWAP4 POP PUSH2 0x2936 DUP4 PUSH2 0x28D2 JUMP JUMPDEST DUP1 PUSH1 0x0 JUMPDEST DUP4 DUP2 LT ISZERO PUSH2 0x2967 JUMPI DUP2 MLOAD PUSH2 0x294E DUP9 DUP3 PUSH2 0x28F1 JUMP JUMPDEST SWAP8 POP PUSH2 0x2959 DUP4 PUSH2 0x2909 JUMP JUMPDEST SWAP3 POP POP PUSH1 0x1 DUP2 ADD SWAP1 POP PUSH2 0x293A JUMP JUMPDEST POP DUP6 SWAP4 POP POP POP POP SWAP3 SWAP2 POP POP JUMP JUMPDEST PUSH1 0x0 PUSH1 0xE0 DUP3 ADD SWAP1 POP PUSH2 0x2989 PUSH1 0x0 DUP4 ADD DUP11 PUSH2 0x2898 JUMP JUMPDEST DUP2 DUP2 SUB PUSH1 0x20 DUP4 ADD MSTORE PUSH2 0x299B DUP2 DUP10 PUSH2 0x2490 JUMP JUMPDEST SWAP1 POP DUP2 DUP2 SUB PUSH1 0x40 DUP4 ADD MSTORE PUSH2 0x29AF DUP2 DUP9 PUSH2 0x2490 JUMP JUMPDEST SWAP1 POP PUSH2 0x29BE PUSH1 0x60 DUP4 ADD DUP8 PUSH2 0x25FF JUMP JUMPDEST PUSH2 0x29CB PUSH1 0x80 DUP4 ADD DUP7 PUSH2 0x28A7 JUMP JUMPDEST PUSH2 0x29D8 PUSH1 0xA0 DUP4 ADD DUP6 PUSH2 0x26BD JUMP JUMPDEST DUP2 DUP2 SUB PUSH1 0xC0 DUP4 ADD MSTORE PUSH2 0x29EA DUP2 DUP5 PUSH2 0x2916 JUMP JUMPDEST SWAP1 POP SWAP9 SWAP8 POP POP POP POP POP POP POP POP JUMP JUMPDEST PUSH1 0x0 PUSH1 0x20 DUP3 ADD SWAP1 POP PUSH2 0x2A0D PUSH1 0x0 DUP4 ADD DUP5 PUSH2 0x28A7 JUMP JUMPDEST SWAP3 SWAP2 POP POP JUMP JUMPDEST PUSH2 0x2A1C DUP2 PUSH2 0x267C JUMP JUMPDEST DUP2 EQ PUSH2 0x2A27 JUMPI PUSH1 0x0 DUP1 REVERT JUMPDEST POP JUMP JUMPDEST PUSH1 0x0 DUP2 CALLDATALOAD SWAP1 POP PUSH2 0x2A39 DUP2 PUSH2 0x2A13 JUMP JUMPDEST SWAP3 SWAP2 POP POP JUMP JUMPDEST PUSH2 0x2A48 DUP2 PUSH2 0x26B3 JUMP JUMPDEST DUP2 EQ PUSH2 0x2A53 JUMPI PUSH1 0x0 DUP1 REVERT JUMPDEST POP JUMP JUMPDEST PUSH1 0x0 DUP2 CALLDATALOAD SWAP1 POP PUSH2 0x2A65 DUP2 PUSH2 0x2A3F JUMP JUMPDEST SWAP3 SWAP2 POP POP JUMP JUMPDEST PUSH1 0x0 DUP1 PUSH1 0x0 DUP1 PUSH1 0x0 DUP1 PUSH1 0x0 PUSH1 0xE0 DUP9 DUP11 SUB SLT ISZERO PUSH2 0x2A8A JUMPI PUSH2 0x2A89 PUSH2 0x24EB JUMP JUMPDEST JUMPDEST PUSH1 0x0 PUSH2 0x2A98 DUP11 DUP3 DUP12 ADD PUSH2 0x253E JUMP JUMPDEST SWAP8 POP POP PUSH1 0x20 PUSH2 0x2AA9 DUP11 DUP3 DUP12 ADD PUSH2 0x253E JUMP JUMPDEST SWAP7 POP POP PUSH1 0x40 PUSH2 0x2ABA DUP11 DUP3 DUP12 ADD PUSH2 0x2574 JUMP JUMPDEST SWAP6 POP POP PUSH1 0x60 PUSH2 0x2ACB DUP11 DUP3 DUP12 ADD PUSH2 0x2574 JUMP JUMPDEST SWAP5 POP POP PUSH1 0x80 PUSH2 0x2ADC DUP11 DUP3 DUP12 ADD PUSH2 0x2A2A JUMP JUMPDEST SWAP4 POP POP PUSH1 0xA0 PUSH2 0x2AED DUP11 DUP3 DUP12 ADD PUSH2 0x2A56 JUMP JUMPDEST SWAP3 POP POP PUSH1 0xC0 PUSH2 0x2AFE DUP11 DUP3 DUP12 ADD PUSH2 0x2A56 JUMP JUMPDEST SWAP2 POP POP SWAP3 SWAP6 SWAP9 SWAP2 SWAP5 SWAP8 POP SWAP3 SWAP6 POP JUMP JUMPDEST PUSH1 0x0 DUP1 PUSH1 0x40 DUP4 DUP6 SUB SLT ISZERO PUSH2 0x2B24 JUMPI PUSH2 0x2B23 PUSH2 0x24EB JUMP JUMPDEST JUMPDEST PUSH1 0x0 PUSH2 0x2B32 DUP6 DUP3 DUP7 ADD PUSH2 0x253E JUMP JUMPDEST SWAP3 POP POP PUSH1 0x20 PUSH2 0x2B43 DUP6 DUP3 DUP7 ADD PUSH2 0x253E JUMP JUMPDEST SWAP2 POP POP SWAP3 POP SWAP3 SWAP1 POP JUMP JUMPDEST PUSH32 0x4E487B7100000000000000000000000000000000000000000000000000000000 PUSH1 0x0 MSTORE PUSH1 0x22 PUSH1 0x4 MSTORE PUSH1 0x24 PUSH1 0x0 REVERT JUMPDEST PUSH1 0x0 PUSH1 0x2 DUP3 DIV SWAP1 POP PUSH1 0x1 DUP3 AND DUP1 PUSH2 0x2B94 JUMPI PUSH1 0x7F DUP3 AND SWAP2 POP JUMPDEST PUSH1 0x20 DUP3 LT DUP2 SUB PUSH2 0x2BA7 JUMPI PUSH2 0x2BA6 PUSH2 0x2B4D JUMP JUMPDEST JUMPDEST POP SWAP2 SWAP1 POP JUMP JUMPDEST PUSH1 0x0 DUP3 DUP3 MSTORE PUSH1 0x20 DUP3 ADD SWAP1 POP SWAP3 SWAP2 POP POP JUMP JUMPDEST DUP3 DUP2 DUP4 CALLDATACOPY PUSH1 0x0 DUP4 DUP4 ADD MSTORE POP POP POP JUMP JUMPDEST PUSH1 0x0 PUSH2 0x2BD9 DUP4 DUP6 PUSH2 0x2BAD JUMP JUMPDEST SWAP4 POP PUSH2 0x2BE6 DUP4 DUP6 DUP5 PUSH2 0x2BBE JUMP JUMPDEST PUSH2 0x2BEF DUP4 PUSH2 0x247F JUMP JUMPDEST DUP5 ADD SWAP1 POP SWAP4 SWAP3 POP POP POP JUMP JUMPDEST PUSH1 0x0 PUSH1 0xA0 DUP3 ADD SWAP1 POP PUSH2 0x2C0F PUSH1 0x0 DUP4 ADD DUP10 PUSH2 0x28A7 JUMP JUMPDEST PUSH2 0x2C1C PUSH1 0x20 DUP4 ADD DUP9 PUSH2 0x28A7 JUMP JUMPDEST PUSH2 0x2C29 PUSH1 0x40 DUP4 ADD DUP8 PUSH2 0x25FF JUMP JUMPDEST PUSH2 0x2C36 PUSH1 0x60 DUP4 ADD DUP7 PUSH2 0x25FF JUMP JUMPDEST DUP2 DUP2 SUB PUSH1 0x80 DUP4 ADD MSTORE PUSH2 0x2C49 DUP2 DUP5 DUP7 PUSH2 0x2BCD JUMP JUMPDEST SWAP1 POP SWAP8 SWAP7 POP POP POP POP POP POP POP JUMP JUMPDEST PUSH1 0x0 DUP2 MLOAD SWAP1 POP PUSH2 0x2C65 DUP2 PUSH2 0x2A3F JUMP JUMPDEST SWAP3 SWAP2 POP POP JUMP JUMPDEST PUSH1 0x0 PUSH1 0x20 DUP3 DUP5 SUB SLT ISZERO PUSH2 0x2C81 JUMPI PUSH2 0x2C80 PUSH2 0x24EB JUMP JUMPDEST JUMPDEST PUSH1 0x0 PUSH2 0x2C8F DUP5 DUP3 DUP6 ADD PUSH2 0x2C56 JUMP JUMPDEST SWAP2 POP POP SWAP3 SWAP2 POP POP JUMP JUMPDEST PUSH32 0x4E487B7100000000000000000000000000000000000000000000000000000000 PUSH1 0x0 MSTORE PUSH1 0x11 PUSH1 0x4 MSTORE PUSH1 0x24 PUSH1 0x0 REVERT JUMPDEST PUSH1 0x0 PUSH2 0x2CD2 DUP3 PUSH2 0x2553 JUMP JUMPDEST SWAP2 POP PUSH2 0x2CDD DUP4 PUSH2 0x2553 JUMP JUMPDEST SWAP3 POP DUP3 DUP3 ADD SWAP1 POP DUP1 DUP3 GT ISZERO PUSH2 0x2CF5 JUMPI PUSH2 0x2CF4 PUSH2 0x2C98 JUMP JUMPDEST JUMPDEST SWAP3 SWAP2 POP POP JUMP JUMPDEST PUSH1 0x0 PUSH2 0x2D06 DUP3 PUSH2 0x2553 JUMP JUMPDEST SWAP2 POP PUSH2 0x2D11 DUP4 PUSH2 0x2553 JUMP JUMPDEST SWAP3 POP DUP3 DUP3 SUB SWAP1 POP DUP2 DUP2 GT ISZERO PUSH2 0x2D29 JUMPI PUSH2 0x2D28 PUSH2 0x2C98 JUMP JUMPDEST JUMPDEST SWAP3 SWAP2 POP POP JUMP JUMPDEST PUSH32 0x4549503731323A20556E696E697469616C697A65640000000000000000000000 PUSH1 0x0 DUP3 ADD MSTORE POP JUMP JUMPDEST PUSH1 0x0 PUSH2 0x2D65 PUSH1 0x15 DUP4 PUSH2 0x2444 JUMP JUMPDEST SWAP2 POP PUSH2 0x2D70 DUP3 PUSH2 0x2D2F JUMP JUMPDEST PUSH1 0x20 DUP3 ADD SWAP1 POP SWAP2 SWAP1 POP JUMP JUMPDEST PUSH1 0x0 PUSH1 0x20 DUP3 ADD SWAP1 POP DUP2 DUP2 SUB PUSH1 0x0 DUP4 ADD MSTORE PUSH2 0x2D94 DUP2 PUSH2 0x2D58 JUMP JUMPDEST SWAP1 POP SWAP2 SWAP1 POP JUMP JUMPDEST PUSH32 0x4E487B7100000000000000000000000000000000000000000000000000000000 PUSH1 0x0 MSTORE PUSH1 0x41 PUSH1 0x4 MSTORE PUSH1 0x24 PUSH1 0x0 REVERT JUMPDEST PUSH1 0x0 DUP2 SWAP1 POP SWAP2 SWAP1 POP JUMP JUMPDEST PUSH1 0x0 PUSH8 0xFFFFFFFFFFFFFFFF DUP3 AND SWAP1 POP SWAP2 SWAP1 POP JUMP JUMPDEST PUSH1 0x0 DUP2 SWAP1 POP SWAP2 SWAP1 POP JUMP JUMPDEST PUSH1 0x0 PUSH2 0x2E0D PUSH2 0x2E08 PUSH2 0x2E03 DUP5 PUSH2 0x2DCA JUMP JUMPDEST PUSH2 0x2DE8 JUMP JUMPDEST PUSH2 0x2DD4 JUMP JUMPDEST SWAP1 POP SWAP2 SWAP1 POP JUMP JUMPDEST PUSH2 0x2E1D DUP2 PUSH2 0x2DF2 JUMP JUMPDEST DUP3 MSTORE POP POP JUMP JUMPDEST PUSH1 0x0 PUSH1 0x20 DUP3 ADD SWAP1 POP PUSH2 0x2E38 PUSH1 0x0 DUP4 ADD DUP5 PUSH2 0x2E14 JUMP JUMPDEST SWAP3 SWAP2 POP POP JUMP JUMPDEST PUSH1 0x0 PUSH1 0xC0 DUP3 ADD SWAP1 POP PUSH2 0x2E53 PUSH1 0x0 DUP4 ADD DUP10 PUSH2 0x26BD JUMP JUMPDEST PUSH2 0x2E60 PUSH1 0x20 DUP4 ADD DUP9 PUSH2 0x28A7 JUMP JUMPDEST PUSH2 0x2E6D PUSH1 0x40 DUP4 ADD DUP8 PUSH2 0x28A7 JUMP JUMPDEST PUSH2 0x2E7A PUSH1 0x60 DUP4 ADD DUP7 PUSH2 0x25FF JUMP JUMPDEST PUSH2 0x2E87 PUSH1 0x80 DUP4 ADD DUP6 PUSH2 0x25FF JUMP JUMPDEST PUSH2 0x2E94 PUSH1 0xA0 DUP4 ADD DUP5 PUSH2 0x25FF JUMP JUMPDEST SWAP8 SWAP7 POP POP POP POP POP POP POP JUMP JUMPDEST PUSH1 0x0 PUSH1 0x40 DUP3 ADD SWAP1 POP PUSH2 0x2EB4 PUSH1 0x0 DUP4 ADD DUP6 PUSH2 0x28A7 JUMP JUMPDEST PUSH2 0x2EC1 PUSH1 0x20 DUP4 ADD DUP5 PUSH2 0x28A7 JUMP JUMPDEST SWAP4 SWAP3 POP POP POP JUMP JUMPDEST PUSH1 0x0 PUSH1 0x60 DUP3 ADD SWAP1 POP PUSH2 0x2EDD PUSH1 0x0 DUP4 ADD DUP7 PUSH2 0x28A7 JUMP JUMPDEST PUSH2 0x2EEA PUSH1 0x20 DUP4 ADD DUP6 PUSH2 0x25FF JUMP JUMPDEST PUSH2 0x2EF7 PUSH1 0x40 DUP4 ADD DUP5 PUSH2 0x25FF JUMP JUMPDEST SWAP5 SWAP4 POP POP POP POP JUMP JUMPDEST PUSH1 0x0 PUSH1 0xA0 DUP3 ADD SWAP1 POP PUSH2 0x2F14 PUSH1 0x0 DUP4 ADD DUP9 PUSH2 0x26BD JUMP JUMPDEST PUSH2 0x2F21 PUSH1 0x20 DUP4 ADD DUP8 PUSH2 0x26BD JUMP JUMPDEST PUSH2 0x2F2E PUSH1 0x40 DUP4 ADD DUP7 PUSH2 0x26BD JUMP JUMPDEST PUSH2 0x2F3B PUSH1 0x60 DUP4 ADD DUP6 PUSH2 0x25FF JUMP JUMPDEST PUSH2 0x2F48 PUSH1 0x80 DUP4 ADD DUP5 PUSH2 0x28A7 JUMP JUMPDEST SWAP7 SWAP6 POP POP POP POP POP POP JUMP JUMPDEST PUSH1 0x0 DUP2 SWAP1 POP DUP2 PUSH1 0x0 MSTORE PUSH1 0x20 PUSH1 0x0 KECCAK256 SWAP1 POP SWAP2 SWAP1 POP JUMP JUMPDEST PUSH1 0x0 PUSH1 0x20 PUSH1 0x1F DUP4 ADD DIV SWAP1 POP SWAP2 SWAP1 POP JUMP JUMPDEST PUSH1 0x0 DUP3 DUP3 SHL SWAP1 POP SWAP3 SWAP2 POP POP JUMP JUMPDEST PUSH1 0x0 PUSH1 0x8 DUP4 MUL PUSH2 0x2FB4 PUSH32 0xFFFFFFFFFFFFFFFFFFFFFFFFFFFFFFFFFFFFFFFFFFFFFFFFFFFFFFFFFFFFFFFF DUP3 PUSH2 0x2F77 JUMP JUMPDEST PUSH2 0x2FBE DUP7 DUP4 PUSH2 0x2F77 JUMP JUMPDEST SWAP6 POP DUP1 NOT DUP5 AND SWAP4 POP DUP1 DUP7 AND DUP5 OR SWAP3 POP POP POP SWAP4 SWAP3 POP POP POP JUMP JUMPDEST PUSH1 0x0 PUSH2 0x2FF1 PUSH2 0x2FEC PUSH2 0x2FE7 DUP5 PUSH2 0x2553 JUMP JUMPDEST PUSH2 0x2DE8 JUMP JUMPDEST PUSH2 0x2553 JUMP JUMPDEST SWAP1 POP SWAP2 SWAP1 POP JUMP JUMPDEST PUSH1 0x0 DUP2 SWAP1 POP SWAP2 SWAP1 POP JUMP JUMPDEST PUSH2 0x300B DUP4 PUSH2 0x2FD6 JUMP JUMPDEST PUSH2 0x301F PUSH2 0x3017 DUP3 PUSH2 0x2FF8 JUMP JUMPDEST DUP5 DUP5 SLOAD PUSH2 0x2F84 JUMP JUMPDEST DUP3 SSTORE POP POP POP POP JUMP JUMPDEST PUSH1 0x0 SWAP1 JUMP JUMPDEST PUSH2 0x3034 PUSH2 0x3027 JUMP JUMPDEST PUSH2 0x303F DUP2 DUP5 DUP5 PUSH2 0x3002 JUMP JUMPDEST POP POP POP JUMP JUMPDEST JUMPDEST DUP2 DUP2 LT ISZERO PUSH2 0x3063 JUMPI PUSH2 0x3058 PUSH1 0x0 DUP3 PUSH2 0x302C JUMP JUMPDEST PUSH1 0x1 DUP2 ADD SWAP1 POP PUSH2 0x3045 JUMP JUMPDEST POP POP JUMP JUMPDEST PUSH1 0x1F DUP3 GT ISZERO PUSH2 0x30A8 JUMPI PUSH2 0x3079 DUP2 PUSH2 0x2F52 JUMP JUMPDEST PUSH2 0x3082 DUP5 PUSH2 0x2F67 JUMP JUMPDEST DUP2 ADD PUSH1 0x20 DUP6 LT ISZERO PUSH2 0x3091 JUMPI DUP2 SWAP1 POP JUMPDEST PUSH2 0x30A5 PUSH2 0x309D DUP6 PUSH2 0x2F67 JUMP JUMPDEST DUP4 ADD DUP3 PUSH2 0x3044 JUMP JUMPDEST POP POP JUMPDEST POP POP POP JUMP JUMPDEST PUSH1 0x0 DUP3 DUP3 SHR SWAP1 POP SWAP3 SWAP2 POP POP JUMP JUMPDEST PUSH1 0x0 PUSH2 0x30CB PUSH1 0x0 NOT DUP5 PUSH1 0x8 MUL PUSH2 0x30AD JUMP JUMPDEST NOT DUP1 DUP4 AND SWAP2 POP POP SWAP3 SWAP2 POP POP JUMP JUMPDEST PUSH1 0x0 PUSH2 0x30E4 DUP4 DUP4 PUSH2 0x30BA JUMP JUMPDEST SWAP2 POP DUP3 PUSH1 0x2 MUL DUP3 OR SWAP1 POP SWAP3 SWAP2 POP POP JUMP JUMPDEST PUSH2 0x30FD DUP3 PUSH2 0x2439 JUMP JUMPDEST PUSH8 0xFFFFFFFFFFFFFFFF DUP2 GT ISZERO PUSH2 0x3116 JUMPI PUSH2 0x3115 PUSH2 0x2D9B JUMP JUMPDEST JUMPDEST PUSH2 0x3120 DUP3 SLOAD PUSH2 0x2B7C JUMP JUMPDEST PUSH2 0x312B DUP3 DUP3 DUP6 PUSH2 0x3067 JUMP JUMPDEST PUSH1 0x0 PUSH1 0x20 SWAP1 POP PUSH1 0x1F DUP4 GT PUSH1 0x1 DUP2 EQ PUSH2 0x315E JUMPI PUSH1 0x0 DUP5 ISZERO PUSH2 0x314C JUMPI DUP3 DUP8 ADD MLOAD SWAP1 POP JUMPDEST PUSH2 0x3156 DUP6 DUP3 PUSH2 0x30D8 JUMP JUMPDEST DUP7 SSTORE POP PUSH2 0x31BE JUMP JUMPDEST PUSH1 0x1F NOT DUP5 AND PUSH2 0x316C DUP7 PUSH2 0x2F52 JUMP JUMPDEST PUSH1 0x0 JUMPDEST DUP3 DUP2 LT ISZERO PUSH2 0x3194 JUMPI DUP5 DUP10 ADD MLOAD DUP3 SSTORE PUSH1 0x1 DUP3 ADD SWAP2 POP PUSH1 0x20 DUP6 ADD SWAP5 POP PUSH1 0x20 DUP2 ADD SWAP1 POP PUSH2 0x316F JUMP JUMPDEST DUP7 DUP4 LT ISZERO PUSH2 0x31B1 JUMPI DUP5 DUP10 ADD MLOAD PUSH2 0x31AD PUSH1 0x1F DUP10 AND DUP3 PUSH2 0x30BA JUMP JUMPDEST DUP4 SSTORE POP JUMPDEST PUSH1 0x1 PUSH1 0x2 DUP9 MUL ADD DUP9 SSTORE POP POP POP JUMPDEST POP POP POP POP POP POP JUMP JUMPDEST PUSH1 0x0 PUSH1 0x80 DUP3 ADD SWAP1 POP PUSH2 0x31DB PUSH1 0x0 DUP4 ADD DUP8 PUSH2 0x26BD JUMP JUMPDEST PUSH2 0x31E8 PUSH1 0x20 DUP4 ADD DUP7 PUSH2 0x2689 JUMP JUMPDEST PUSH2 0x31F5 PUSH1 0x40 DUP4 ADD DUP6 PUSH2 0x26BD JUMP JUMPDEST PUSH2 0x3202 PUSH1 0x60 DUP4 ADD DUP5 PUSH2 0x26BD JUMP JUMPDEST SWAP6 SWAP5 POP POP POP POP POP JUMP JUMPDEST PUSH32 0x4E487B7100000000000000000000000000000000000000000000000000000000 PUSH1 0x0 MSTORE PUSH1 0x21 PUSH1 0x4 MSTORE PUSH1 0x24 PUSH1 0x0 REVERT INVALID LOG2 PUSH5 0x6970667358 0x22 SLT KECCAK256 0xAF CREATE2 0xE5 0xA7 MLOAD 0xA5 PUSH18 0x612F6FAC27CCC74E17FE33BF1934538A501D 0x2B BYTE PUSH20 0x3FC5C8CF64736F6C634300081400330000000000 "},"methodIdentifiers":{"DOMAIN_SEPARATOR()":"3644e515","allowance(address,address)":"dd62ed3e","approve(address,uint256)":"095ea7b3","balanceOf(address)":"70a08231","burn(uint256)":"42966c68","burnFrom(address,uint256)":"79cc6790","decimals()":"313ce567","eip712Domain()":"84b0196e","flashFee(address,uint256)":"d9d98ce4","flashLoan(address,address,uint256,bytes)":"5cffe9de","initialize(address)":"c4d66de8","maxFlashLoan(address)":"613255ab","mint(address,uint256)":"40c10f19","name()":"06fdde03","nonces(address)":"7ecebe00","owner()":"8da5cb5b","pause()":"8456cb59","paused()":"5c975abb","permit(address,address,uint256,uint256,uint8,bytes32,bytes32)":"d505accf","renounceOwnership()":"715018a6","symbol()":"95d89b41","totalSupply()":"18160ddd","transfer(address,uint256)":"a9059cbb","transferFrom(address,address,uint256)":"23b872dd","transferOwnership(address)":"f2fde38b","unpause()":"3f4ba83a"}},"storageLayout":{"storage":[],"types":null}}}}