{
  "_format": "hh-sol-artifact-1",
  "contractName": "MoCoKoV1",
  "sourceName": "contracts/MoCoKoV1.sol",
  "abi": [
    {
      "inputs": [],
      "stateMutability": "nonpayable",
      "type": "constructor"
    },
    {
      "inputs": [],
      "name": "ECDSAInvalidSignature",
      "type": "error"
    },
    {
      "inputs": [
        {
          "internalType": "uint256",
          "name": "length",
          "type": "uint256"
        }
      ],
      "name": "ECDSAInvalidSignatureLength",
      "type": "error"
    },
    {
      "inputs": [
        {
          "internalType": "bytes32",
          "name": "s",
          "type": "bytes32"
        }
      ],
      "name": "ECDSAInvalidSignatureS",
      "type": "error"
    },
    {
      "inputs": [
        {
          "internalType": "address",
          "name": "spender",
          "type": "address"
        },
        {
          "internalType": "uint256",
          "name": "allowance",
          "type": "uint256"
        },
        {
          "internalType": "uint256",
          "name": "needed",
          "type": "uint256"
        }
      ],
      "name": "ERC20InsufficientAllowance",
      "type": "error"
    },
    {
      "inputs": [
        {
          "internalType": "address",
          "name": "sender",
          "type": "address"
        },
        {
          "internalType": "uint256",
          "name": "balance",
          "type": "uint256"
        },
        {
          "internalType": "uint256",
          "name": "needed",
          "type": "uint256"
        }
      ],
      "name": "ERC20InsufficientBalance",
      "type": "error"
    },
    {
      "inputs": [
        {
          "internalType": "address",
          "name": "approver",
          "type": "address"
        }
      ],
      "name": "ERC20InvalidApprover",
      "type": "error"
    },
    {
      "inputs": [
        {
          "internalType": "address",
          "name": "receiver",
          "type": "address"
        }
      ],
      "name": "ERC20InvalidReceiver",
      "type": "error"
    },
    {
      "inputs": [
        {
          "internalType": "address",
          "name": "sender",
          "type": "address"
        }
      ],
      "name": "ERC20InvalidSender",
      "type": "error"
    },
    {
      "inputs": [
        {
          "internalType": "address",
          "name": "spender",
          "type": "address"
        }
      ],
      "name": "ERC20InvalidSpender",
      "type": "error"
    },
    {
      "inputs": [
        {
          "internalType": "uint256",
          "name": "deadline",
          "type": "uint256"
        }
      ],
      "name": "ERC2612ExpiredSignature",
      "type": "error"
    },
    {
      "inputs": [
        {
          "internalType": "address",
          "name": "signer",
          "type": "address"
        },
        {
          "internalType": "address",
          "name": "owner",
          "type": "address"
        }
      ],
      "name": "ERC2612InvalidSigner",
      "type": "error"
    },
    {
      "inputs": [
        {
          "internalType": "uint256",
          "name": "maxLoan",
          "type": "uint256"
        }
      ],
      "name": "ERC3156ExceededMaxLoan",
      "type": "error"
    },
    {
      "inputs": [
        {
          "internalType": "address",
          "name": "receiver",
          "type": "address"
        }
      ],
      "name": "ERC3156InvalidReceiver",
      "type": "error"
    },
    {
      "inputs": [
        {
          "internalType": "address",
          "name": "token",
          "type": "address"
        }
      ],
      "name": "ERC3156UnsupportedToken",
      "type": "error"
    },
    {
      "inputs": [],
      "name": "EnforcedPause",
      "type": "error"
    },
    {
      "inputs": [],
      "name": "ExpectedPause",
      "type": "error"
    },
    {
      "inputs": [
        {
          "internalType": "address",
          "name": "account",
          "type": "address"
        },
        {
          "internalType": "uint256",
          "name": "currentNonce",
          "type": "uint256"
        }
      ],
      "name": "InvalidAccountNonce",
      "type": "error"
    },
    {
      "inputs": [],
      "name": "InvalidInitialization",
      "type": "error"
    },
    {
      "inputs": [],
      "name": "NotInitializing",
      "type": "error"
    },
    {
      "inputs": [
        {
          "internalType": "address",
          "name": "owner",
          "type": "address"
        }
      ],
      "name": "OwnableInvalidOwner",
      "type": "error"
    },
    {
      "inputs": [
        {
          "internalType": "address",
          "name": "account",
          "type": "address"
        }
      ],
      "name": "OwnableUnauthorizedAccount",
      "type": "error"
    },
    {
      "anonymous": false,
      "inputs": [
        {
          "indexed": true,
          "internalType": "address",
          "name": "owner",
          "type": "address"
        },
        {
          "indexed": true,
          "internalType": "address",
          "name": "spender",
          "type": "address"
        },
        {
          "indexed": false,
          "internalType": "uint256",
          "name": "value",
          "type": "uint256"
        }
      ],
      "name": "Approval",
      "type": "event"
    },
    {
      "anonymous": false,
      "inputs": [],
      "name": "EIP712DomainChanged",
      "type": "event"
    },
    {
      "anonymous": false,
      "inputs": [
        {
          "indexed": false,
          "internalType": "uint64",
          "name": "version",
          "type": "uint64"
        }
      ],
      "name": "Initialized",
      "type": "event"
    },
    {
      "anonymous": false,
      "inputs": [
        {
          "indexed": true,
          "internalType": "address",
          "name": "previousOwner",
          "type": "address"
        },
        {
          "indexed": true,
          "internalType": "address",
          "name": "newOwner",
          "type": "address"
        }
      ],
      "name": "OwnershipTransferred",
      "type": "event"
    },
    {
      "anonymous": false,
      "inputs": [
        {
          "indexed": false,
          "internalType": "address",
          "name": "account",
          "type": "address"
        }
      ],
      "name": "Paused",
      "type": "event"
    },
    {
      "anonymous": false,
      "inputs": [
        {
          "indexed": true,
          "internalType": "address",
          "name": "from",
          "type": "address"
        },
        {
          "indexed": true,
          "internalType": "address",
          "name": "to",
          "type": "address"
        },
        {
          "indexed": false,
          "internalType": "uint256",
          "name": "value",
          "type": "uint256"
        }
      ],
      "name": "Transfer",
      "type": "event"
    },
    {
      "anonymous": false,
      "inputs": [
        {
          "indexed": false,
          "internalType": "address",
          "name": "account",
          "type": "address"
        }
      ],
      "name": "Unpaused",
      "type": "event"
    },
    {
      "inputs": [],
      "name": "DOMAIN_SEPARATOR",
      "outputs": [
        {
          "internalType": "bytes32",
          "name": "",
          "type": "bytes32"
        }
      ],
      "stateMutability": "view",
      "type": "function"
    },
    {
      "inputs": [
        {
          "internalType": "address",
          "name": "owner",
          "type": "address"
        },
        {
          "internalType": "address",
          "name": "spender",
          "type": "address"
        }
      ],
      "name": "allowance",
      "outputs": [
        {
          "internalType": "uint256",
          "name": "",
          "type": "uint256"
        }
      ],
      "stateMutability": "view",
      "type": "function"
    },
    {
      "inputs": [
        {
          "internalType": "address",
          "name": "spender",
          "type": "address"
        },
        {
          "internalType": "uint256",
          "name": "value",
          "type": "uint256"
        }
      ],
      "name": "approve",
      "outputs": [
        {
          "internalType": "bool",
          "name": "",
          "type": "bool"
        }
      ],
      "stateMutability": "nonpayable",
      "type": "function"
    },
    {
      "inputs": [
        {
          "internalType": "address",
          "name": "account",
          "type": "address"
        }
      ],
      "name": "balanceOf",
      "outputs": [
        {
          "internalType": "uint256",
          "name": "",
          "type": "uint256"
        }
      ],
      "stateMutability": "view",
      "type": "function"
    },
    {
      "inputs": [
        {
          "internalType": "uint256",
          "name": "value",
          "type": "uint256"
        }
      ],
      "name": "burn",
      "outputs": [],
      "stateMutability": "nonpayable",
      "type": "function"
    },
    {
      "inputs": [
        {
          "internalType": "address",
          "name": "account",
          "type": "address"
        },
        {
          "internalType": "uint256",
          "name": "value",
          "type": "uint256"
        }
      ],
      "name": "burnFrom",
      "outputs": [],
      "stateMutability": "nonpayable",
      "type": "function"
    },
    {
      "inputs": [],
      "name": "decimals",
      "outputs": [
        {
          "internalType": "uint8",
          "name": "",
          "type": "uint8"
        }
      ],
      "stateMutability": "view",
      "type": "function"
    },
    {
      "inputs": [],
      "name": "eip712Domain",
      "outputs": [
        {
          "internalType": "bytes1",
          "name": "fields",
          "type": "bytes1"
        },
        {
          "internalType": "string",
          "name": "name",
          "type": "string"
        },
        {
          "internalType": "string",
          "name": "version",
          "type": "string"
        },
        {
          "internalType": "uint256",
          "name": "chainId",
          "type": "uint256"
        },
        {
          "internalType": "address",
          "name": "verifyingContract",
          "type": "address"
        },
        {
          "internalType": "bytes32",
          "name": "salt",
          "type": "bytes32"
        },
        {
          "internalType": "uint256[]",
          "name": "extensions",
          "type": "uint256[]"
        }
      ],
      "stateMutability": "view",
      "type": "function"
    },
    {
      "inputs": [
        {
          "internalType": "address",
          "name": "token",
          "type": "address"
        },
        {
          "internalType": "uint256",
          "name": "value",
          "type": "uint256"
        }
      ],
      "name": "flashFee",
      "outputs": [
        {
          "internalType": "uint256",
          "name": "",
          "type": "uint256"
        }
      ],
      "stateMutability": "view",
      "type": "function"
    },
    {
      "inputs": [
        {
          "internalType": "contract IERC3156FlashBorrower",
          "name": "receiver",
          "type": "address"
        },
        {
          "internalType": "address",
          "name": "token",
          "type": "address"
        },
        {
          "internalType": "uint256",
          "name": "value",
          "type": "uint256"
        },
        {
          "internalType": "bytes",
          "name": "data",
          "type": "bytes"
        }
      ],
      "name": "flashLoan",
      "outputs": [
        {
          "internalType": "bool",
          "name": "",
          "type": "bool"
        }
      ],
      "stateMutability": "nonpayable",
      "type": "function"
    },
    {
      "inputs": [
        {
          "internalType": "address",
          "name": "initialOwner",
          "type": "address"
        }
      ],
      "name": "initialize",
      "outputs": [],
      "stateMutability": "nonpayable",
      "type": "function"
    },
    {
      "inputs": [
        {
          "internalType": "address",
          "name": "token",
          "type": "address"
        }
      ],
      "name": "maxFlashLoan",
      "outputs": [
        {
          "internalType": "uint256",
          "name": "",
          "type": "uint256"
        }
      ],
      "stateMutability": "view",
      "type": "function"
    },
    {
      "inputs": [
        {
          "internalType": "address",
          "name": "to",
          "type": "address"
        },
        {
          "internalType": "uint256",
          "name": "amount",
          "type": "uint256"
        }
      ],
      "name": "mint",
      "outputs": [],
      "stateMutability": "nonpayable",
      "type": "function"
    },
    {
      "inputs": [],
      "name": "name",
      "outputs": [
        {
          "internalType": "string",
          "name": "",
          "type": "string"
        }
      ],
      "stateMutability": "view",
      "type": "function"
    },
    {
      "inputs": [
        {
          "internalType": "address",
          "name": "owner",
          "type": "address"
        }
      ],
      "name": "nonces",
      "outputs": [
        {
          "internalType": "uint256",
          "name": "",
          "type": "uint256"
        }
      ],
      "stateMutability": "view",
      "type": "function"
    },
    {
      "inputs": [],
      "name": "owner",
      "outputs": [
        {
          "internalType": "address",
          "name": "",
          "type": "address"
        }
      ],
      "stateMutability": "view",
      "type": "function"
    },
    {
      "inputs": [],
      "name": "pause",
      "outputs": [],
      "stateMutability": "nonpayable",
      "type": "function"
    },
    {
      "inputs": [],
      "name": "paused",
      "outputs": [
        {
          "internalType": "bool",
          "name": "",
          "type": "bool"
        }
      ],
      "stateMutability": "view",
      "type": "function"
    },
    {
      "inputs": [
        {
          "internalType": "address",
          "name": "owner",
          "type": "address"
        },
        {
          "internalType": "address",
          "name": "spender",
          "type": "address"
        },
        {
          "internalType": "uint256",
          "name": "value",
          "type": "uint256"
        },
        {
          "internalType": "uint256",
          "name": "deadline",
          "type": "uint256"
        },
        {
          "internalType": "uint8",
          "name": "v",
          "type": "uint8"
        },
        {
          "internalType": "bytes32",
          "name": "r",
          "type": "bytes32"
        },
        {
          "internalType": "bytes32",
          "name": "s",
          "type": "bytes32"
        }
      ],
      "name": "permit",
      "outputs": [],
      "stateMutability": "nonpayable",
      "type": "function"
    },
    {
      "inputs": [],
      "name": "renounceOwnership",
      "outputs": [],
      "stateMutability": "nonpayable",
      "type": "function"
    },
    {
      "inputs": [],
      "name": "symbol",
      "outputs": [
        {
          "internalType": "string",
          "name": "",
          "type": "string"
        }
      ],
      "stateMutability": "view",
      "type": "function"
    },
    {
      "inputs": [],
      "name": "totalSupply",
      "outputs": [
        {
          "internalType": "uint256",
          "name": "",
          "type": "uint256"
        }
      ],
      "stateMutability": "view",
      "type": "function"
    },
    {
      "inputs": [
        {
          "internalType": "address",
          "name": "to",
          "type": "address"
        },
        {
          "internalType": "uint256",
          "name": "value",
          "type": "uint256"
        }
      ],
      "name": "transfer",
      "outputs": [
        {
          "internalType": "bool",
          "name": "",
          "type": "bool"
        }
      ],
      "stateMutability": "nonpayable",
      "type": "function"
    },
    {
      "inputs": [
        {
          "internalType": "address",
          "name": "from",
          "type": "address"
        },
        {
          "internalType": "address",
          "name": "to",
          "type": "address"
        },
        {
          "internalType": "uint256",
          "name": "value",
          "type": "uint256"
        }
      ],
      "name": "transferFrom",
      "outputs": [
        {
          "internalType": "bool",
          "name": "",
          "type": "bool"
        }
      ],
      "stateMutability": "nonpayable",
      "type": "function"
    },
    {
      "inputs": [
        {
          "internalType": "address",
          "name": "newOwner",
          "type": "address"
        }
      ],
      "name": "transferOwnership",
      "outputs": [],
      "stateMutability": "nonpayable",
      "type": "function"
    },
    {
      "inputs": [],
      "name": "unpause",
      "outputs": [],
      "stateMutability": "nonpayable",
      "type": "function"
    }
  ],
  "bytecode": "0x60806040523480156200001157600080fd5b50620000226200002860201b60201c565b6200019c565b60006200003a6200013260201b60201c565b90508060000160089054906101000a900460ff161562000086576040517ff92ee8a900000000000000000000000000000000000000000000000000000000815260040160405180910390fd5b67ffffffffffffffff80168160000160009054906101000a900467ffffffffffffffff1667ffffffffffffffff16146200012f5767ffffffffffffffff8160000160006101000a81548167ffffffffffffffff021916908367ffffffffffffffff1602179055507fc7f505b2f371ae2175ee4913f4499e1f2633a7b5936321eed1cdaeb6115181d267ffffffffffffffff6040516200012691906200017f565b60405180910390a15b50565b60007ff0c57e16840df040f15088dc2f81fe391c3923bec73e23a9662efc9c229c6a00905090565b600067ffffffffffffffff82169050919050565b62000179816200015a565b82525050565b60006020820190506200019660008301846200016e565b92915050565b61345b80620001ac6000396000f3fe608060405234801561001057600080fd5b506004361061018e5760003560e01c8063715018a6116100de57806395d89b4111610097578063d505accf11610071578063d505accf14610467578063d9d98ce414610483578063dd62ed3e146104b3578063f2fde38b146104e35761018e565b806395d89b41146103fd578063a9059cbb1461041b578063c4d66de81461044b5761018e565b8063715018a61461035b57806379cc6790146103655780637ecebe00146103815780638456cb59146103b157806384b0196e146103bb5780638da5cb5b146103df5761018e565b80633f4ba83a1161014b5780635c975abb116101255780635c975abb146102ad5780635cffe9de146102cb578063613255ab146102fb57806370a082311461032b5761018e565b80633f4ba83a1461026b57806340c10f191461027557806342966c68146102915761018e565b806306fdde0314610193578063095ea7b3146101b157806318160ddd146101e157806323b872dd146101ff578063313ce5671461022f5780633644e5151461024d575b600080fd5b61019b6104ff565b6040516101a891906124f4565b60405180910390f35b6101cb60048036038101906101c691906125b4565b6105a0565b6040516101d8919061260f565b60405180910390f35b6101e96105c3565b6040516101f69190612639565b60405180910390f35b61021960048036038101906102149190612654565b6105db565b604051610226919061260f565b60405180910390f35b61023761060a565b60405161024491906126c3565b60405180910390f35b610255610613565b60405161026291906126f7565b60405180910390f35b610273610622565b005b61028f600480360381019061028a91906125b4565b610634565b005b6102ab60048036038101906102a69190612712565b61064a565b005b6102b561065e565b6040516102c2919061260f565b60405180910390f35b6102e560048036038101906102e091906127e2565b610683565b6040516102f2919061260f565b60405180910390f35b6103156004803603810190610310919061286a565b610880565b6040516103229190612639565b60405180910390f35b6103456004803603810190610340919061286a565b6108f7565b6040516103529190612639565b60405180910390f35b61036361094e565b005b61037f600480360381019061037a91906125b4565b610962565b005b61039b6004803603810190610396919061286a565b610982565b6040516103a89190612639565b60405180910390f35b6103b9610994565b005b6103c36109a6565b6040516103d6979695949392919061299f565b60405180910390f35b6103e7610ab8565b6040516103f49190612a23565b60405180910390f35b610405610af0565b60405161041291906124f4565b60405180910390f35b610435600480360381019061043091906125b4565b610b91565b604051610442919061260f565b60405180910390f35b6104656004803603810190610460919061286a565b610bb4565b005b610481600480360381019061047c9190612a96565b610e38565b005b61049d600480360381019061049891906125b4565b610f80565b6040516104aa9190612639565b60405180910390f35b6104cd60048036038101906104c89190612b38565b611004565b6040516104da9190612639565b60405180910390f35b6104fd60048036038101906104f8919061286a565b611099565b005b6060600061050b61111f565b905080600301805461051c90612ba7565b80601f016020809104026020016040519081016040528092919081815260200182805461054890612ba7565b80156105955780601f1061056a57610100808354040283529160200191610595565b820191906000526020600020905b81548152906001019060200180831161057857829003601f168201915b505050505091505090565b6000806105ab611147565b90506105b881858561114f565b600191505092915050565b6000806105ce61111f565b9050806002015491505090565b6000806105e6611147565b90506105f3858285611161565b6105fe8585856111f5565b60019150509392505050565b60006012905090565b600061061d6112e9565b905090565b61062a6112f8565b61063261137f565b565b61063c6112f8565b61064682826113f1565b5050565b61065b610655611147565b82611473565b50565b6000806106696114f5565b90508060000160009054906101000a900460ff1691505090565b60008061068f86610880565b9050808511156106d657806040517ffd9a76090000000000000000000000000000000000000000000000000000000081526004016106cd9190612639565b60405180910390fd5b60006106e28787610f80565b90506106ee88876113f1565b7f439148f0bbc682ca079e46d6e2c2f0c1e3b820f1a291b069d8882abf8cf18dd98873ffffffffffffffffffffffffffffffffffffffff166323e30c8b610733611147565b8a8a868b8b6040518763ffffffff1660e01b815260040161075996959493929190612c25565b6020604051808303816000875af1158015610778573d6000803e3d6000fd5b505050506040513d601f19601f8201168201806040525081019061079c9190612c96565b146107de57876040517f678c5b000000000000000000000000000000000000000000000000000000000081526004016107d59190612a23565b60405180910390fd5b60006107e861151d565b90506108008930848a6107fb9190612cf2565b611161565b600082148061083b5750600073ffffffffffffffffffffffffffffffffffffffff168173ffffffffffffffffffffffffffffffffffffffff16145b1561085a576108558983896108509190612cf2565b611473565b610870565b6108648988611473565b61086f8982846111f5565b5b6001935050505095945050505050565b60003073ffffffffffffffffffffffffffffffffffffffff168273ffffffffffffffffffffffffffffffffffffffff16146108bc5760006108f0565b6108c46105c3565b7fffffffffffffffffffffffffffffffffffffffffffffffffffffffffffffffff6108ef9190612d26565b5b9050919050565b60008061090261111f565b90508060000160008473ffffffffffffffffffffffffffffffffffffffff1673ffffffffffffffffffffffffffffffffffffffff16815260200190815260200160002054915050919050565b6109566112f8565b6109606000611522565b565b6109748261096e611147565b83611161565b61097e8282611473565b5050565b600061098d826115f9565b9050919050565b61099c6112f8565b6109a4611650565b565b60006060806000806000606060006109bc6116c2565b90506000801b81600001541480156109da57506000801b8160010154145b610a19576040517f08c379a0000000000000000000000000000000000000000000000000000000008152600401610a1090612da6565b60405180910390fd5b610a216116ea565b610a2961178b565b46306000801b600067ffffffffffffffff811115610a4a57610a49612dc6565b5b604051908082528060200260200182016040528015610a785781602001602082028036833780820191505090505b507f0f0000000000000000000000000000000000000000000000000000000000000095949392919097509750975097509750975097505090919293949596565b600080610ac361182c565b90508060000160009054906101000a900473ffffffffffffffffffffffffffffffffffffffff1691505090565b60606000610afc61111f565b9050806004018054610b0d90612ba7565b80601f0160208091040260200160405190810160405280929190818152602001828054610b3990612ba7565b8015610b865780601f10610b5b57610100808354040283529160200191610b86565b820191906000526020600020905b815481529060010190602001808311610b6957829003601f168201915b505050505091505090565b600080610b9c611147565b9050610ba98185856111f5565b600191505092915050565b6000610bbe611854565b905060008160000160089054906101000a900460ff1615905060008260000160009054906101000a900467ffffffffffffffff1690506000808267ffffffffffffffff16148015610c0c5750825b9050600060018367ffffffffffffffff16148015610c41575060003073ffffffffffffffffffffffffffffffffffffffff163b145b905081158015610c4f575080155b15610c86576040517ff92ee8a900000000000000000000000000000000000000000000000000000000815260040160405180910390fd5b60018560000160006101000a81548167ffffffffffffffff021916908367ffffffffffffffff1602179055508315610cd65760018560000160086101000a81548160ff0219169083151502179055505b610d4a6040518060400160405280600681526020017f4d6f436f4b6f00000000000000000000000000000000000000000000000000008152506040518060400160405280600381526020017f4d434b000000000000000000000000000000000000000000000000000000000081525061187c565b610d52611892565b610d5a61189c565b610d63866118ae565b610da16040518060400160405280600681526020017f4d6f436f4b6f00000000000000000000000000000000000000000000000000008152506118c2565b610da961190c565b610dd433610db561060a565b600a610dc19190612f28565b620186a0610dcf9190612f73565b6113f1565b8315610e305760008560000160086101000a81548160ff0219169083151502179055507fc7f505b2f371ae2175ee4913f4499e1f2633a7b5936321eed1cdaeb6115181d26001604051610e27919061300e565b60405180910390a15b505050505050565b83421115610e7d57836040517f62791302000000000000000000000000000000000000000000000000000000008152600401610e749190612639565b60405180910390fd5b60007f6e71edae12b1b97f4d1f60370fef10105fa2faae0126114a169c64845d6126c9888888610eac8c611916565b89604051602001610ec296959493929190613029565b6040516020818303038152906040528051906020012090506000610ee58261197b565b90506000610ef582878787611995565b90508973ffffffffffffffffffffffffffffffffffffffff168173ffffffffffffffffffffffffffffffffffffffff1614610f6957808a6040517f4b800e46000000000000000000000000000000000000000000000000000000008152600401610f6092919061308a565b60405180910390fd5b610f748a8a8a61114f565b50505050505050505050565b60003073ffffffffffffffffffffffffffffffffffffffff168373ffffffffffffffffffffffffffffffffffffffff1614610ff257826040517fb5a7db92000000000000000000000000000000000000000000000000000000008152600401610fe99190612a23565b60405180910390fd5b610ffc83836119c5565b905092915050565b60008061100f61111f565b90508060010160008573ffffffffffffffffffffffffffffffffffffffff1673ffffffffffffffffffffffffffffffffffffffff16815260200190815260200160002060008473ffffffffffffffffffffffffffffffffffffffff1673ffffffffffffffffffffffffffffffffffffffff1681526020019081526020016000205491505092915050565b6110a16112f8565b600073ffffffffffffffffffffffffffffffffffffffff168173ffffffffffffffffffffffffffffffffffffffff16036111135760006040517f1e4fbdf700000000000000000000000000000000000000000000000000000000815260040161110a9190612a23565b60405180910390fd5b61111c81611522565b50565b60007f52c63247e1f47db19d5ce0460030c497f067ca4cebf71ba98eeadabe20bace00905090565b600033905090565b61115c83838360016119cd565b505050565b600061116d8484611004565b90507fffffffffffffffffffffffffffffffffffffffffffffffffffffffffffffffff81146111ef57818110156111df578281836040517ffb8f41b20000000000000000000000000000000000000000000000000000000081526004016111d6939291906130b3565b60405180910390fd5b6111ee848484840360006119cd565b5b50505050565b600073ffffffffffffffffffffffffffffffffffffffff168373ffffffffffffffffffffffffffffffffffffffff16036112675760006040517f96c6fd1e00000000000000000000000000000000000000000000000000000000815260040161125e9190612a23565b60405180910390fd5b600073ffffffffffffffffffffffffffffffffffffffff168273ffffffffffffffffffffffffffffffffffffffff16036112d95760006040517fec442f050000000000000000000000000000000000000000000000000000000081526004016112d09190612a23565b60405180910390fd5b6112e4838383611bb3565b505050565b60006112f3611bc3565b905090565b611300611147565b73ffffffffffffffffffffffffffffffffffffffff1661131e610ab8565b73ffffffffffffffffffffffffffffffffffffffff161461137d57611341611147565b6040517f118cdaa70000000000000000000000000000000000000000000000000000000081526004016113749190612a23565b60405180910390fd5b565b611387611c27565b60006113916114f5565b905060008160000160006101000a81548160ff0219169083151502179055507f5db9ee0a495bf2e6ff9c91a7834c1ba4fdd244a5e8aa4e537bd38aeae4b073aa6113d9611147565b6040516113e69190612a23565b60405180910390a150565b600073ffffffffffffffffffffffffffffffffffffffff168273ffffffffffffffffffffffffffffffffffffffff16036114635760006040517fec442f0500000000000000000000000000000000000000000000000000000000815260040161145a9190612a23565b60405180910390fd5b61146f60008383611bb3565b5050565b600073ffffffffffffffffffffffffffffffffffffffff168273ffffffffffffffffffffffffffffffffffffffff16036114e55760006040517f96c6fd1e0000000000000000000000000000000000000000000000000000000081526004016114dc9190612a23565b60405180910390fd5b6114f182600083611bb3565b5050565b60007fcd5ed15c6e187e77e9aee88184c21f4f2182ab5827cb3b7e07fbedcd63f03300905090565b600090565b600061152c61182c565b905060008160000160009054906101000a900473ffffffffffffffffffffffffffffffffffffffff169050828260000160006101000a81548173ffffffffffffffffffffffffffffffffffffffff021916908373ffffffffffffffffffffffffffffffffffffffff1602179055508273ffffffffffffffffffffffffffffffffffffffff168173ffffffffffffffffffffffffffffffffffffffff167f8be0079c531659141344cd1fd0a4f28419497f9722a3daafe3b4186f6b6457e060405160405180910390a3505050565b600080611604611c67565b90508060000160008473ffffffffffffffffffffffffffffffffffffffff1673ffffffffffffffffffffffffffffffffffffffff16815260200190815260200160002054915050919050565b611658611c8f565b60006116626114f5565b905060018160000160006101000a81548160ff0219169083151502179055507f62e78cea01bee320cd4e420270b5ea74000d11b0c9f74754ebdbfc544b05a2586116aa611147565b6040516116b79190612a23565b60405180910390a150565b60007fa16a46d94261c7517cc8ff89f61c0ce93598e3c849801011dee649a6a557d100905090565b606060006116f66116c2565b905080600201805461170790612ba7565b80601f016020809104026020016040519081016040528092919081815260200182805461173390612ba7565b80156117805780601f1061175557610100808354040283529160200191611780565b820191906000526020600020905b81548152906001019060200180831161176357829003601f168201915b505050505091505090565b606060006117976116c2565b90508060030180546117a890612ba7565b80601f01602080910402602001604051908101604052809291908181526020018280546117d490612ba7565b80156118215780601f106117f657610100808354040283529160200191611821565b820191906000526020600020905b81548152906001019060200180831161180457829003601f168201915b505050505091505090565b60007f9016d09d72d40fdae2fd8ceac6b6234c7706214fd39c1cd1e609a0528c199300905090565b60007ff0c57e16840df040f15088dc2f81fe391c3923bec73e23a9662efc9c229c6a00905090565b611884611cd0565b61188e8282611d10565b5050565b61189a611cd0565b565b6118a4611cd0565b6118ac611d4d565b565b6118b6611cd0565b6118bf81611d81565b50565b6118ca611cd0565b611909816040518060400160405280600181526020017f3100000000000000000000000000000000000000000000000000000000000000815250611e07565b50565b611914611cd0565b565b600080611921611c67565b90508060000160008473ffffffffffffffffffffffffffffffffffffffff1673ffffffffffffffffffffffffffffffffffffffff168152602001908152602001600020600081548092919060010191905055915050919050565b600061198e6119886112e9565b83611e5c565b9050919050565b6000806000806119a788888888611e9d565b9250925092506119b78282611f91565b829350505050949350505050565b600092915050565b60006119d761111f565b9050600073ffffffffffffffffffffffffffffffffffffffff168573ffffffffffffffffffffffffffffffffffffffff1603611a4b5760006040517fe602df05000000000000000000000000000000000000000000000000000000008152600401611a429190612a23565b60405180910390fd5b600073ffffffffffffffffffffffffffffffffffffffff168473ffffffffffffffffffffffffffffffffffffffff1603611abd5760006040517f94280d62000000000000000000000000000000000000000000000000000000008152600401611ab49190612a23565b60405180910390fd5b828160010160008773ffffffffffffffffffffffffffffffffffffffff1673ffffffffffffffffffffffffffffffffffffffff16815260200190815260200160002060008673ffffffffffffffffffffffffffffffffffffffff1673ffffffffffffffffffffffffffffffffffffffff168152602001908152602001600020819055508115611bac578373ffffffffffffffffffffffffffffffffffffffff168573ffffffffffffffffffffffffffffffffffffffff167f8c5be1e5ebec7d5bd14f71427d1e84f3dd0314c0f7b2291e5b200ac8c7c3b92585604051611ba39190612639565b60405180910390a35b5050505050565b611bbe8383836120f5565b505050565b60007f8b73c3c69bb8fe3d512ecc4cf759cc79239f7b179b0ffacaa9a75d522b39400f611bee61210d565b611bf6612189565b4630604051602001611c0c9594939291906130ea565b60405160208183030381529060405280519060200120905090565b611c2f61065e565b611c65576040517f8dfc202b00000000000000000000000000000000000000000000000000000000815260040160405180910390fd5b565b60007f5ab42ced628888259c08ac98db1eb0cf702fc1501344311d8b100cd1bfe4bb00905090565b611c9761065e565b15611cce576040517fd93c066500000000000000000000000000000000000000000000000000000000815260040160405180910390fd5b565b611cd8612205565b611d0e576040517fd7e6bcf800000000000000000000000000000000000000000000000000000000815260040160405180910390fd5b565b611d18611cd0565b6000611d2261111f565b905082816003019081611d3591906132df565b5081816004019081611d4791906132df565b50505050565b611d55611cd0565b6000611d5f6114f5565b905060008160000160006101000a81548160ff02191690831515021790555050565b611d89611cd0565b600073ffffffffffffffffffffffffffffffffffffffff168173ffffffffffffffffffffffffffffffffffffffff1603611dfb5760006040517f1e4fbdf7000000000000000000000000000000000000000000000000000000008152600401611df29190612a23565b60405180910390fd5b611e0481611522565b50565b611e0f611cd0565b6000611e196116c2565b905082816002019081611e2c91906132df565b5081816003019081611e3e91906132df565b506000801b81600001819055506000801b8160010181905550505050565b60006040517f190100000000000000000000000000000000000000000000000000000000000081528360028201528260228201526042812091505092915050565b60008060007f7fffffffffffffffffffffffffffffff5d576e7357a4501ddfe92f46681b20a08460001c1115611edd576000600385925092509250611f87565b600060018888888860405160008152602001604052604051611f0294939291906133b1565b6020604051602081039080840390855afa158015611f24573d6000803e3d6000fd5b505050602060405103519050600073ffffffffffffffffffffffffffffffffffffffff168173ffffffffffffffffffffffffffffffffffffffff1603611f7857600060016000801b93509350935050611f87565b8060008060001b935093509350505b9450945094915050565b60006003811115611fa557611fa46133f6565b5b826003811115611fb857611fb76133f6565b5b03156120f15760016003811115611fd257611fd16133f6565b5b826003811115611fe557611fe46133f6565b5b0361201c576040517ff645eedf00000000000000000000000000000000000000000000000000000000815260040160405180910390fd5b600260038111156120305761202f6133f6565b5b826003811115612043576120426133f6565b5b03612088578060001c6040517ffce698f700000000000000000000000000000000000000000000000000000000815260040161207f9190612639565b60405180910390fd5b60038081111561209b5761209a6133f6565b5b8260038111156120ae576120ad6133f6565b5b036120f057806040517fd78bce0c0000000000000000000000000000000000000000000000000000000081526004016120e791906126f7565b60405180910390fd5b5b5050565b6120fd611c8f565b612108838383612225565b505050565b6000806121186116c2565b905060006121246116ea565b905060008151111561214157808051906020012092505050612186565b6000826000015490506000801b811461215f57809350505050612186565b7fc5d2460186f7233c927e7db2dcc703c0e500b653ca82273b7bfad8045d85a47093505050505b90565b6000806121946116c2565b905060006121a061178b565b90506000815111156121bd57808051906020012092505050612202565b6000826001015490506000801b81146121db57809350505050612202565b7fc5d2460186f7233c927e7db2dcc703c0e500b653ca82273b7bfad8045d85a47093505050505b90565b600061220f611854565b60000160089054906101000a900460ff16905090565b600061222f61111f565b9050600073ffffffffffffffffffffffffffffffffffffffff168473ffffffffffffffffffffffffffffffffffffffff160361228557818160020160008282546122799190612cf2565b9250508190555061235e565b60008160000160008673ffffffffffffffffffffffffffffffffffffffff1673ffffffffffffffffffffffffffffffffffffffff16815260200190815260200160002054905082811015612314578481846040517fe450d38c00000000000000000000000000000000000000000000000000000000815260040161230b939291906130b3565b60405180910390fd5b8281038260000160008773ffffffffffffffffffffffffffffffffffffffff1673ffffffffffffffffffffffffffffffffffffffff16815260200190815260200160002081905550505b600073ffffffffffffffffffffffffffffffffffffffff168373ffffffffffffffffffffffffffffffffffffffff16036123a9578181600201600082825403925050819055506123f9565b818160000160008573ffffffffffffffffffffffffffffffffffffffff1673ffffffffffffffffffffffffffffffffffffffff168152602001908152602001600020600082825401925050819055505b8273ffffffffffffffffffffffffffffffffffffffff168473ffffffffffffffffffffffffffffffffffffffff167fddf252ad1be2c89b69c2b068fc378daa952ba7f163c4a11628f55a4df523b3ef846040516124569190612639565b60405180910390a350505050565b600081519050919050565b600082825260208201905092915050565b60005b8381101561249e578082015181840152602081019050612483565b60008484015250505050565b6000601f19601f8301169050919050565b60006124c682612464565b6124d0818561246f565b93506124e0818560208601612480565b6124e9816124aa565b840191505092915050565b6000602082019050818103600083015261250e81846124bb565b905092915050565b600080fd5b600080fd5b600073ffffffffffffffffffffffffffffffffffffffff82169050919050565b600061254b82612520565b9050919050565b61255b81612540565b811461256657600080fd5b50565b60008135905061257881612552565b92915050565b6000819050919050565b6125918161257e565b811461259c57600080fd5b50565b6000813590506125ae81612588565b92915050565b600080604083850312156125cb576125ca612516565b5b60006125d985828601612569565b92505060206125ea8582860161259f565b9150509250929050565b60008115159050919050565b612609816125f4565b82525050565b60006020820190506126246000830184612600565b92915050565b6126338161257e565b82525050565b600060208201905061264e600083018461262a565b92915050565b60008060006060848603121561266d5761266c612516565b5b600061267b86828701612569565b935050602061268c86828701612569565b925050604061269d8682870161259f565b9150509250925092565b600060ff82169050919050565b6126bd816126a7565b82525050565b60006020820190506126d860008301846126b4565b92915050565b6000819050919050565b6126f1816126de565b82525050565b600060208201905061270c60008301846126e8565b92915050565b60006020828403121561272857612727612516565b5b60006127368482850161259f565b91505092915050565b600061274a82612540565b9050919050565b61275a8161273f565b811461276557600080fd5b50565b60008135905061277781612751565b92915050565b600080fd5b600080fd5b600080fd5b60008083601f8401126127a2576127a161277d565b5b8235905067ffffffffffffffff8111156127bf576127be612782565b5b6020830191508360018202830111156127db576127da612787565b5b9250929050565b6000806000806000608086880312156127fe576127fd612516565b5b600061280c88828901612768565b955050602061281d88828901612569565b945050604061282e8882890161259f565b935050606086013567ffffffffffffffff81111561284f5761284e61251b565b5b61285b8882890161278c565b92509250509295509295909350565b6000602082840312156128805761287f612516565b5b600061288e84828501612569565b91505092915050565b60007fff0000000000000000000000000000000000000000000000000000000000000082169050919050565b6128cc81612897565b82525050565b6128db81612540565b82525050565b600081519050919050565b600082825260208201905092915050565b6000819050602082019050919050565b6129168161257e565b82525050565b6000612928838361290d565b60208301905092915050565b6000602082019050919050565b600061294c826128e1565b61295681856128ec565b9350612961836128fd565b8060005b83811015612992578151612979888261291c565b975061298483612934565b925050600181019050612965565b5085935050505092915050565b600060e0820190506129b4600083018a6128c3565b81810360208301526129c681896124bb565b905081810360408301526129da81886124bb565b90506129e9606083018761262a565b6129f660808301866128d2565b612a0360a08301856126e8565b81810360c0830152612a158184612941565b905098975050505050505050565b6000602082019050612a3860008301846128d2565b92915050565b612a47816126a7565b8114612a5257600080fd5b50565b600081359050612a6481612a3e565b92915050565b612a73816126de565b8114612a7e57600080fd5b50565b600081359050612a9081612a6a565b92915050565b600080600080600080600060e0888a031215612ab557612ab4612516565b5b6000612ac38a828b01612569565b9750506020612ad48a828b01612569565b9650506040612ae58a828b0161259f565b9550506060612af68a828b0161259f565b9450506080612b078a828b01612a55565b93505060a0612b188a828b01612a81565b92505060c0612b298a828b01612a81565b91505092959891949750929550565b60008060408385031215612b4f57612b4e612516565b5b6000612b5d85828601612569565b9250506020612b6e85828601612569565b9150509250929050565b7f4e487b7100000000000000000000000000000000000000000000000000000000600052602260045260246000fd5b60006002820490506001821680612bbf57607f821691505b602082108103612bd257612bd1612b78565b5b50919050565b600082825260208201905092915050565b82818337600083830152505050565b6000612c048385612bd8565b9350612c11838584612be9565b612c1a836124aa565b840190509392505050565b600060a082019050612c3a60008301896128d2565b612c4760208301886128d2565b612c54604083018761262a565b612c61606083018661262a565b8181036080830152612c74818486612bf8565b9050979650505050505050565b600081519050612c9081612a6a565b92915050565b600060208284031215612cac57612cab612516565b5b6000612cba84828501612c81565b91505092915050565b7f4e487b7100000000000000000000000000000000000000000000000000000000600052601160045260246000fd5b6000612cfd8261257e565b9150612d088361257e565b9250828201905080821115612d2057612d1f612cc3565b5b92915050565b6000612d318261257e565b9150612d3c8361257e565b9250828203905081811115612d5457612d53612cc3565b5b92915050565b7f4549503731323a20556e696e697469616c697a65640000000000000000000000600082015250565b6000612d9060158361246f565b9150612d9b82612d5a565b602082019050919050565b60006020820190508181036000830152612dbf81612d83565b9050919050565b7f4e487b7100000000000000000000000000000000000000000000000000000000600052604160045260246000fd5b60008160011c9050919050565b6000808291508390505b6001851115612e4c57808604811115612e2857612e27612cc3565b5b6001851615612e375780820291505b8081029050612e4585612df5565b9450612e0c565b94509492505050565b600082612e655760019050612f21565b81612e735760009050612f21565b8160018114612e895760028114612e9357612ec2565b6001915050612f21565b60ff841115612ea557612ea4612cc3565b5b8360020a915084821115612ebc57612ebb612cc3565b5b50612f21565b5060208310610133831016604e8410600b8410161715612ef75782820a905083811115612ef257612ef1612cc3565b5b612f21565b612f048484846001612e02565b92509050818404811115612f1b57612f1a612cc3565b5b81810290505b9392505050565b6000612f338261257e565b9150612f3e836126a7565b9250612f6b7fffffffffffffffffffffffffffffffffffffffffffffffffffffffffffffffff8484612e55565b905092915050565b6000612f7e8261257e565b9150612f898361257e565b9250828202612f978161257e565b91508282048414831517612fae57612fad612cc3565b5b5092915050565b6000819050919050565b600067ffffffffffffffff82169050919050565b6000819050919050565b6000612ff8612ff3612fee84612fb5565b612fd3565b612fbf565b9050919050565b61300881612fdd565b82525050565b60006020820190506130236000830184612fff565b92915050565b600060c08201905061303e60008301896126e8565b61304b60208301886128d2565b61305860408301876128d2565b613065606083018661262a565b613072608083018561262a565b61307f60a083018461262a565b979650505050505050565b600060408201905061309f60008301856128d2565b6130ac60208301846128d2565b9392505050565b60006060820190506130c860008301866128d2565b6130d5602083018561262a565b6130e2604083018461262a565b949350505050565b600060a0820190506130ff60008301886126e8565b61310c60208301876126e8565b61311960408301866126e8565b613126606083018561262a565b61313360808301846128d2565b9695505050505050565b60008190508160005260206000209050919050565b60006020601f8301049050919050565b600082821b905092915050565b60006008830261319f7fffffffffffffffffffffffffffffffffffffffffffffffffffffffffffffffff82613162565b6131a98683613162565b95508019841693508086168417925050509392505050565b60006131dc6131d76131d28461257e565b612fd3565b61257e565b9050919050565b6000819050919050565b6131f6836131c1565b61320a613202826131e3565b84845461316f565b825550505050565b600090565b61321f613212565b61322a8184846131ed565b505050565b5b8181101561324e57613243600082613217565b600181019050613230565b5050565b601f821115613293576132648161313d565b61326d84613152565b8101602085101561327c578190505b61329061328885613152565b83018261322f565b50505b505050565b600082821c905092915050565b60006132b660001984600802613298565b1980831691505092915050565b60006132cf83836132a5565b9150826002028217905092915050565b6132e882612464565b67ffffffffffffffff81111561330157613300612dc6565b5b61330b8254612ba7565b613316828285613252565b600060209050601f8311600181146133495760008415613337578287015190505b61334185826132c3565b8655506133a9565b601f1984166133578661313d565b60005b8281101561337f5784890151825560018201915060208501945060208101905061335a565b8683101561339c5784890151613398601f8916826132a5565b8355505b6001600288020188555050505b505050505050565b60006080820190506133c660008301876126e8565b6133d360208301866126b4565b6133e060408301856126e8565b6133ed60608301846126e8565b95945050505050565b7f4e487b7100000000000000000000000000000000000000000000000000000000600052602160045260246000fdfea2646970667358221220bec5b3a39430ff50764ace1dcfa3c234aa3a9d164ef753defd82bd8b83a5ca6264736f6c63430008140033",
  "linkReferences": {},
  "deployedLinkReferences": {}
}